{
  "_format": "hh-sol-artifact-1",
  "contractName": "Certificate",
  "sourceName": "contracts/Certificate.sol",
  "abi": [
    {
      "inputs": [
        {
          "internalType": "string",
          "name": "uri",
          "type": "string"
        },
        {
          "internalType": "address",
          "name": "_hackathonFactory",
          "type": "address"
        }
      ],
      "stateMutability": "nonpayable",
      "type": "constructor"
    },
    {
      "anonymous": false,
      "inputs": [
        {
          "indexed": true,
          "internalType": "address",
          "name": "account",
          "type": "address"
        },
        {
          "indexed": true,
          "internalType": "address",
          "name": "operator",
          "type": "address"
        },
        {
          "indexed": false,
          "internalType": "bool",
          "name": "approved",
          "type": "bool"
        }
      ],
      "name": "ApprovalForAll",
      "type": "event"
    },
    {
      "anonymous": false,
      "inputs": [
        {
          "indexed": true,
          "internalType": "address",
          "name": "previousOwner",
          "type": "address"
        },
        {
          "indexed": true,
          "internalType": "address",
          "name": "newOwner",
          "type": "address"
        }
      ],
      "name": "OwnershipTransferred",
      "type": "event"
    },
    {
      "anonymous": false,
      "inputs": [
        {
          "indexed": true,
          "internalType": "address",
          "name": "operator",
          "type": "address"
        },
        {
          "indexed": true,
          "internalType": "address",
          "name": "from",
          "type": "address"
        },
        {
          "indexed": true,
          "internalType": "address",
          "name": "to",
          "type": "address"
        },
        {
          "indexed": false,
          "internalType": "uint256[]",
          "name": "ids",
          "type": "uint256[]"
        },
        {
          "indexed": false,
          "internalType": "uint256[]",
          "name": "values",
          "type": "uint256[]"
        }
      ],
      "name": "TransferBatch",
      "type": "event"
    },
    {
      "anonymous": false,
      "inputs": [
        {
          "indexed": true,
          "internalType": "address",
          "name": "operator",
          "type": "address"
        },
        {
          "indexed": true,
          "internalType": "address",
          "name": "from",
          "type": "address"
        },
        {
          "indexed": true,
          "internalType": "address",
          "name": "to",
          "type": "address"
        },
        {
          "indexed": false,
          "internalType": "uint256",
          "name": "id",
          "type": "uint256"
        },
        {
          "indexed": false,
          "internalType": "uint256",
          "name": "value",
          "type": "uint256"
        }
      ],
      "name": "TransferSingle",
      "type": "event"
    },
    {
      "anonymous": false,
      "inputs": [
        {
          "indexed": false,
          "internalType": "string",
          "name": "value",
          "type": "string"
        },
        {
          "indexed": true,
          "internalType": "uint256",
          "name": "id",
          "type": "uint256"
        }
      ],
      "name": "URI",
      "type": "event"
    },
    {
      "inputs": [
        {
          "internalType": "uint256",
          "name": "",
          "type": "uint256"
        }
      ],
      "name": "AwardCertificate",
      "outputs": [
        {
          "internalType": "string",
          "name": "",
          "type": "string"
        }
      ],
      "stateMutability": "view",
      "type": "function"
    },
    {
      "inputs": [
        {
          "internalType": "address",
          "name": "",
          "type": "address"
        },
        {
          "internalType": "uint256",
          "name": "",
          "type": "uint256"
        }
      ],
      "name": "AwardCertificateOf",
      "outputs": [
        {
          "internalType": "uint256",
          "name": "",
          "type": "uint256"
        }
      ],
      "stateMutability": "view",
      "type": "function"
    },
    {
      "inputs": [
        {
          "internalType": "uint256",
          "name": "",
          "type": "uint256"
        }
      ],
      "name": "ParticipateCertificate",
      "outputs": [
        {
          "internalType": "string",
          "name": "",
          "type": "string"
        }
      ],
      "stateMutability": "view",
      "type": "function"
    },
    {
      "inputs": [
        {
          "internalType": "address",
          "name": "",
          "type": "address"
        },
        {
          "internalType": "uint256",
          "name": "",
          "type": "uint256"
        }
      ],
      "name": "ParticipateCertificateOf",
      "outputs": [
        {
          "internalType": "uint256",
          "name": "",
          "type": "uint256"
        }
      ],
      "stateMutability": "view",
      "type": "function"
    },
    {
      "inputs": [
        {
          "internalType": "address",
          "name": "issuer",
          "type": "address"
        }
      ],
      "name": "addIssuer",
      "outputs": [],
      "stateMutability": "nonpayable",
      "type": "function"
    },
    {
      "inputs": [
        {
          "internalType": "address",
          "name": "account",
          "type": "address"
        },
        {
          "internalType": "uint256",
          "name": "id",
          "type": "uint256"
        }
      ],
      "name": "balanceOf",
      "outputs": [
        {
          "internalType": "uint256",
          "name": "",
          "type": "uint256"
        }
      ],
      "stateMutability": "view",
      "type": "function"
    },
    {
      "inputs": [
        {
          "internalType": "address[]",
          "name": "accounts",
          "type": "address[]"
        },
        {
          "internalType": "uint256[]",
          "name": "ids",
          "type": "uint256[]"
        }
      ],
      "name": "balanceOfBatch",
      "outputs": [
        {
          "internalType": "uint256[]",
          "name": "",
          "type": "uint256[]"
        }
      ],
      "stateMutability": "view",
      "type": "function"
    },
    {
      "inputs": [
        {
          "internalType": "address",
          "name": "account",
          "type": "address"
        }
      ],
      "name": "getTokenIds",
      "outputs": [
        {
          "internalType": "uint256[][2]",
          "name": "",
          "type": "uint256[][2]"
        }
      ],
      "stateMutability": "view",
      "type": "function"
    },
    {
      "inputs": [],
      "name": "hackathonFactory",
      "outputs": [
        {
          "internalType": "address",
          "name": "",
          "type": "address"
        }
      ],
      "stateMutability": "view",
      "type": "function"
    },
    {
      "inputs": [
        {
          "internalType": "address",
          "name": "account",
          "type": "address"
        },
        {
          "internalType": "address",
          "name": "operator",
          "type": "address"
        }
      ],
      "name": "isApprovedForAll",
      "outputs": [
        {
          "internalType": "bool",
          "name": "",
          "type": "bool"
        }
      ],
      "stateMutability": "view",
      "type": "function"
    },
    {
      "inputs": [
        {
          "internalType": "address",
          "name": "account",
          "type": "address"
        },
        {
          "internalType": "uint256",
          "name": "hackathon",
          "type": "uint256"
        }
      ],
      "name": "issueAwardCertificate",
      "outputs": [],
      "stateMutability": "nonpayable",
      "type": "function"
    },
    {
      "inputs": [
        {
          "internalType": "address",
          "name": "account",
          "type": "address"
        },
        {
          "internalType": "uint256",
          "name": "hackathon",
          "type": "uint256"
        }
      ],
      "name": "issueParticipateCertificate",
      "outputs": [],
      "stateMutability": "nonpayable",
      "type": "function"
    },
    {
      "inputs": [
        {
          "internalType": "uint256",
          "name": "",
          "type": "uint256"
        }
      ],
      "name": "issuers",
      "outputs": [
        {
          "internalType": "address",
          "name": "",
          "type": "address"
        }
      ],
      "stateMutability": "view",
      "type": "function"
    },
    {
      "inputs": [],
      "name": "owner",
      "outputs": [
        {
          "internalType": "address",
          "name": "",
          "type": "address"
        }
      ],
      "stateMutability": "view",
      "type": "function"
    },
    {
      "inputs": [],
      "name": "renounceOwnership",
      "outputs": [],
      "stateMutability": "nonpayable",
      "type": "function"
    },
    {
      "inputs": [
        {
          "internalType": "address",
          "name": "from",
          "type": "address"
        },
        {
          "internalType": "address",
          "name": "to",
          "type": "address"
        },
        {
          "internalType": "uint256[]",
          "name": "ids",
          "type": "uint256[]"
        },
        {
          "internalType": "uint256[]",
          "name": "amounts",
          "type": "uint256[]"
        },
        {
          "internalType": "bytes",
          "name": "data",
          "type": "bytes"
        }
      ],
      "name": "safeBatchTransferFrom",
      "outputs": [],
      "stateMutability": "nonpayable",
      "type": "function"
    },
    {
      "inputs": [
        {
          "internalType": "address",
          "name": "",
          "type": "address"
        },
        {
          "internalType": "address",
          "name": "",
          "type": "address"
        },
        {
          "internalType": "uint256",
          "name": "",
          "type": "uint256"
        },
        {
          "internalType": "uint256",
          "name": "",
          "type": "uint256"
        },
        {
          "internalType": "bytes",
          "name": "",
          "type": "bytes"
        }
      ],
      "name": "safeTransferFrom",
      "outputs": [],
      "stateMutability": "pure",
      "type": "function"
    },
    {
      "inputs": [
        {
          "internalType": "address",
          "name": "operator",
          "type": "address"
        },
        {
          "internalType": "bool",
          "name": "approved",
          "type": "bool"
        }
      ],
      "name": "setApprovalForAll",
      "outputs": [],
      "stateMutability": "nonpayable",
      "type": "function"
    },
    {
      "inputs": [
        {
          "internalType": "string",
          "name": "newUri",
          "type": "string"
        }
      ],
      "name": "setURI",
      "outputs": [],
      "stateMutability": "nonpayable",
      "type": "function"
    },
    {
      "inputs": [
        {
          "internalType": "bytes4",
          "name": "interfaceId",
          "type": "bytes4"
        }
      ],
      "name": "supportsInterface",
      "outputs": [
        {
          "internalType": "bool",
          "name": "",
          "type": "bool"
        }
      ],
      "stateMutability": "view",
      "type": "function"
    },
    {
      "inputs": [
        {
          "internalType": "address",
          "name": "newOwner",
          "type": "address"
        }
      ],
      "name": "transferOwnership",
      "outputs": [],
      "stateMutability": "nonpayable",
      "type": "function"
    },
    {
      "inputs": [
        {
          "internalType": "uint256",
          "name": "",
          "type": "uint256"
        }
      ],
      "name": "uri",
      "outputs": [
        {
          "internalType": "string",
          "name": "",
          "type": "string"
        }
      ],
      "stateMutability": "view",
      "type": "function"
    }
  ],
  "bytecode": "0x60806040523480156200001157600080fd5b5060405162003c2b38038062003c2b8339818101604052810190620000379190620002d6565b816200004981620000b360201b60201c565b506200006a6200005e620000cf60201b60201c565b620000d760201b60201c565b80600860006101000a81548173ffffffffffffffffffffffffffffffffffffffff021916908373ffffffffffffffffffffffffffffffffffffffff1602179055505050620004ee565b8060029080519060200190620000cb9291906200019d565b5050565b600033905090565b6000600360009054906101000a900473ffffffffffffffffffffffffffffffffffffffff16905081600360006101000a81548173ffffffffffffffffffffffffffffffffffffffff021916908373ffffffffffffffffffffffffffffffffffffffff1602179055508173ffffffffffffffffffffffffffffffffffffffff168173ffffffffffffffffffffffffffffffffffffffff167f8be0079c531659141344cd1fd0a4f28419497f9722a3daafe3b4186f6b6457e060405160405180910390a35050565b828054620001ab90620003f9565b90600052602060002090601f016020900481019282620001cf57600085556200021b565b82601f10620001ea57805160ff19168380011785556200021b565b828001600101855582156200021b579182015b828111156200021a578251825591602001919060010190620001fd565b5b5090506200022a91906200022e565b5090565b5b80821115620002495760008160009055506001016200022f565b5090565b6000620002646200025e8462000359565b62000330565b9050828152602081018484840111156200027d57600080fd5b6200028a848285620003c3565b509392505050565b600081519050620002a381620004d4565b92915050565b600082601f830112620002bb57600080fd5b8151620002cd8482602086016200024d565b91505092915050565b60008060408385031215620002ea57600080fd5b600083015167ffffffffffffffff8111156200030557600080fd5b6200031385828601620002a9565b9250506020620003268582860162000292565b9150509250929050565b60006200033c6200034f565b90506200034a82826200042f565b919050565b6000604051905090565b600067ffffffffffffffff82111562000377576200037662000494565b5b6200038282620004c3565b9050602081019050919050565b60006200039c82620003a3565b9050919050565b600073ffffffffffffffffffffffffffffffffffffffff82169050919050565b60005b83811015620003e3578082015181840152602081019050620003c6565b83811115620003f3576000848401525b50505050565b600060028204905060018216806200041257607f821691505b6020821081141562000429576200042862000465565b5b50919050565b6200043a82620004c3565b810181811067ffffffffffffffff821117156200045c576200045b62000494565b5b80604052505050565b7f4e487b7100000000000000000000000000000000000000000000000000000000600052602260045260246000fd5b7f4e487b7100000000000000000000000000000000000000000000000000000000600052604160045260246000fd5b6000601f19601f8301169050919050565b620004df816200038f565b8114620004eb57600080fd5b50565b61372d80620004fe6000396000f3fe608060405234801561001057600080fd5b50600436106101415760003560e01c8063715018a6116100b8578063e985e9c51161007c578063e985e9c514610396578063ec4278eb146103c6578063eced5276146103e4578063f242432a14610414578063f2fde38b14610430578063f72d89581461044c57610141565b8063715018a6146102f25780638da5cb5b146102fc578063a22cb4651461031a578063d004b03614610336578063d81ed0761461036657610141565b8063249442b71161010a578063249442b71461020e5780632eb2c2d61461023e5780634e1273f41461025a578063533ede8a1461028a57806361ec30c4146102a65780636ad5232b146102d657610141565b8062fdd58e1461014657806301ffc9a71461017657806302fe5305146101a65780630e89341c146101c257806320694db0146101f2575b600080fd5b610160600480360381019061015b91906124b4565b61047c565b60405161016d9190612da5565b60405180910390f35b610190600480360381019061018b919061255c565b610545565b60405161019d9190612b88565b60405180910390f35b6101c060048036038101906101bb91906125ae565b610627565b005b6101dc60048036038101906101d791906125ef565b61063b565b6040516101e99190612ba3565b60405180910390f35b61020c600480360381019061020791906122c5565b6106cf565b005b610228600480360381019061022391906124b4565b6107c5565b6040516102359190612da5565b60405180910390f35b6102586004803603810190610253919061232a565b6107f6565b005b610274600480360381019061026f91906124f0565b610897565b6040516102819190612b2f565b60405180910390f35b6102a4600480360381019061029f91906124b4565b610a48565b005b6102c060048036038101906102bb91906125ef565b610bf1565b6040516102cd9190612a30565b60405180910390f35b6102f060048036038101906102eb91906124b4565b610c30565b005b6102fa610de5565b005b610304610df9565b6040516103119190612a30565b60405180910390f35b610334600480360381019061032f9190612478565b610e23565b005b610350600480360381019061034b91906122c5565b610e39565b60405161035d9190612b0d565b60405180910390f35b610380600480360381019061037b91906125ef565b610f89565b60405161038d9190612ba3565b60405180910390f35b6103b060048036038101906103ab91906122ee565b611029565b6040516103bd9190612b88565b60405180910390f35b6103ce6110bd565b6040516103db9190612a30565b60405180910390f35b6103fe60048036038101906103f991906124b4565b6110e3565b60405161040b9190612da5565b60405180910390f35b61042e600480360381019061042991906123e9565b611114565b005b61044a600480360381019061044591906122c5565b61114f565b005b610466600480360381019061046191906125ef565b6111d3565b6040516104739190612ba3565b60405180910390f35b60008073ffffffffffffffffffffffffffffffffffffffff168373ffffffffffffffffffffffffffffffffffffffff1614156104ed576040517f08c379a00000000000000000000000000000000000000000000000000000000081526004016104e490612c45565b60405180910390fd5b60008083815260200190815260200160002060008473ffffffffffffffffffffffffffffffffffffffff1673ffffffffffffffffffffffffffffffffffffffff16815260200190815260200160002054905092915050565b60007fd9b67a26000000000000000000000000000000000000000000000000000000007bffffffffffffffffffffffffffffffffffffffffffffffffffffffff1916827bffffffffffffffffffffffffffffffffffffffffffffffffffffffff1916148061061057507f0e89341c000000000000000000000000000000000000000000000000000000007bffffffffffffffffffffffffffffffffffffffffffffffffffffffff1916827bffffffffffffffffffffffffffffffffffffffffffffffffffffffff1916145b80610620575061061f82611273565b5b9050919050565b61062f6112dd565b6106388161135b565b50565b60606002805461064a90613083565b80601f016020809104026020016040519081016040528092919081815260200182805461067690613083565b80156106c35780601f10610698576101008083540402835291602001916106c3565b820191906000526020600020905b8154815290600101906020018083116106a657829003601f168201915b50505050509050919050565b600860009054906101000a900473ffffffffffffffffffffffffffffffffffffffff1673ffffffffffffffffffffffffffffffffffffffff163373ffffffffffffffffffffffffffffffffffffffff161461075f576040517f08c379a000000000000000000000000000000000000000000000000000000000815260040161075690612c85565b60405180910390fd5b6009819080600181540180825580915050600190039060005260206000200160009091909190916101000a81548173ffffffffffffffffffffffffffffffffffffffff021916908373ffffffffffffffffffffffffffffffffffffffff16021790555050565b600660205281600052604060002081815481106107e157600080fd5b90600052602060002001600091509150505481565b6107fe611375565b73ffffffffffffffffffffffffffffffffffffffff168573ffffffffffffffffffffffffffffffffffffffff16148061084457506108438561083e611375565b611029565b5b610883576040517f08c379a000000000000000000000000000000000000000000000000000000000815260040161087a90612be5565b60405180910390fd5b610890858585858561137d565b5050505050565b606081518351146108dd576040517f08c379a00000000000000000000000000000000000000000000000000000000081526004016108d490612d45565b60405180910390fd5b6000835167ffffffffffffffff811115610920577f4e487b7100000000000000000000000000000000000000000000000000000000600052604160045260246000fd5b60405190808252806020026020018201604052801561094e5781602001602082028036833780820191505090505b50905060005b8451811015610a3d576109e7858281518110610999577f4e487b7100000000000000000000000000000000000000000000000000000000600052603260045260246000fd5b60200260200101518583815181106109da577f4e487b7100000000000000000000000000000000000000000000000000000000600052603260045260246000fd5b602002602001015161047c565b828281518110610a20577f4e487b7100000000000000000000000000000000000000000000000000000000600052603260045260246000fd5b60200260200101818152505080610a36906130e6565b9050610954565b508091505092915050565b600080600980549050905060005b81811015610b0e573373ffffffffffffffffffffffffffffffffffffffff1660098281548110610aaf577f4e487b7100000000000000000000000000000000000000000000000000000000600052603260045260246000fd5b9060005260206000200160009054906101000a900473ffffffffffffffffffffffffffffffffffffffff1673ffffffffffffffffffffffffffffffffffffffff161415610afb57600192505b8080610b06906130e6565b915050610a56565b5081610b4f576040517f08c379a0000000000000000000000000000000000000000000000000000000008152600401610b4690612d05565b60405180910390fd5b60008390506005600082815260200190815260200160002050600760008673ffffffffffffffffffffffffffffffffffffffff1673ffffffffffffffffffffffffffffffffffffffff168152602001908152602001600020819080600181540180825580915050600190039060005260206000200160009091909190915055610bea85826001604051806020016040528060008152506116eb565b5050505050565b60098181548110610c0157600080fd5b906000526020600020016000915054906101000a900473ffffffffffffffffffffffffffffffffffffffff1681565b600080600980549050905060005b81811015610cf6573373ffffffffffffffffffffffffffffffffffffffff1660098281548110610c97577f4e487b7100000000000000000000000000000000000000000000000000000000600052603260045260246000fd5b9060005260206000200160009054906101000a900473ffffffffffffffffffffffffffffffffffffffff1673ffffffffffffffffffffffffffffffffffffffff161415610ce357600192505b8080610cee906130e6565b915050610c3e565b5081610d37576040517f08c379a0000000000000000000000000000000000000000000000000000000008152600401610d2e90612d05565b60405180910390fd5b6000600184610d469190612f77565b90506004600082815260200190815260200160002050600660008673ffffffffffffffffffffffffffffffffffffffff1673ffffffffffffffffffffffffffffffffffffffff168152602001908152602001600020819080600181540180825580915050600190039060005260206000200160009091909190915055610dde85826001604051806020016040528060008152506116eb565b5050505050565b610ded6112dd565b610df7600061189c565b565b6000600360009054906101000a900473ffffffffffffffffffffffffffffffffffffffff16905090565b610e35610e2e611375565b8383611962565b5050565b610e41611f96565b6000600660008473ffffffffffffffffffffffffffffffffffffffff1673ffffffffffffffffffffffffffffffffffffffff168152602001908152602001600020805480602002602001604051908101604052809291908181526020018280548015610ecc57602002820191906000526020600020905b815481526020019060010190808311610eb8575b505050505090506000600760008573ffffffffffffffffffffffffffffffffffffffff1673ffffffffffffffffffffffffffffffffffffffff168152602001908152602001600020805480602002602001604051908101604052809291908181526020018280548015610f5e57602002820191906000526020600020905b815481526020019060010190808311610f4a575b5050505050905060006040518060400160405280848152602001838152509050809350505050919050565b60046020528060005260406000206000915090508054610fa890613083565b80601f0160208091040260200160405190810160405280929190818152602001828054610fd490613083565b80156110215780601f10610ff657610100808354040283529160200191611021565b820191906000526020600020905b81548152906001019060200180831161100457829003601f168201915b505050505081565b6000600160008473ffffffffffffffffffffffffffffffffffffffff1673ffffffffffffffffffffffffffffffffffffffff16815260200190815260200160002060008373ffffffffffffffffffffffffffffffffffffffff1673ffffffffffffffffffffffffffffffffffffffff16815260200190815260200160002060009054906101000a900460ff16905092915050565b600860009054906101000a900473ffffffffffffffffffffffffffffffffffffffff1681565b600760205281600052604060002081815481106110ff57600080fd5b90600052602060002001600091509150505481565b6040517f08c379a000000000000000000000000000000000000000000000000000000000815260040161114690612cc5565b60405180910390fd5b6111576112dd565b600073ffffffffffffffffffffffffffffffffffffffff168173ffffffffffffffffffffffffffffffffffffffff1614156111c7576040517f08c379a00000000000000000000000000000000000000000000000000000000081526004016111be90612c25565b60405180910390fd5b6111d08161189c565b50565b600560205280600052604060002060009150905080546111f290613083565b80601f016020809104026020016040519081016040528092919081815260200182805461121e90613083565b801561126b5780601f106112405761010080835404028352916020019161126b565b820191906000526020600020905b81548152906001019060200180831161124e57829003601f168201915b505050505081565b60007f01ffc9a7000000000000000000000000000000000000000000000000000000007bffffffffffffffffffffffffffffffffffffffffffffffffffffffff1916827bffffffffffffffffffffffffffffffffffffffffffffffffffffffff1916149050919050565b6112e5611375565b73ffffffffffffffffffffffffffffffffffffffff16611303610df9565b73ffffffffffffffffffffffffffffffffffffffff1614611359576040517f08c379a000000000000000000000000000000000000000000000000000000000815260040161135090612ce5565b60405180910390fd5b565b8060029080519060200190611371929190611fbd565b5050565b600033905090565b81518351146113c1576040517f08c379a00000000000000000000000000000000000000000000000000000000081526004016113b890612d65565b60405180910390fd5b600073ffffffffffffffffffffffffffffffffffffffff168473ffffffffffffffffffffffffffffffffffffffff161415611431576040517f08c379a000000000000000000000000000000000000000000000000000000000815260040161142890612c65565b60405180910390fd5b600061143b611375565b905061144b818787878787611acf565b60005b8451811015611648576000858281518110611492577f4e487b7100000000000000000000000000000000000000000000000000000000600052603260045260246000fd5b6020026020010151905060008583815181106114d7577f4e487b7100000000000000000000000000000000000000000000000000000000600052603260045260246000fd5b60200260200101519050600080600084815260200190815260200160002060008b73ffffffffffffffffffffffffffffffffffffffff1673ffffffffffffffffffffffffffffffffffffffff16815260200190815260200160002054905081811015611578576040517f08c379a000000000000000000000000000000000000000000000000000000000815260040161156f90612ca5565b60405180910390fd5b81810360008085815260200190815260200160002060008c73ffffffffffffffffffffffffffffffffffffffff1673ffffffffffffffffffffffffffffffffffffffff168152602001908152602001600020819055508160008085815260200190815260200160002060008b73ffffffffffffffffffffffffffffffffffffffff1673ffffffffffffffffffffffffffffffffffffffff168152602001908152602001600020600082825461162d9190612f77565b9250508190555050505080611641906130e6565b905061144e565b508473ffffffffffffffffffffffffffffffffffffffff168673ffffffffffffffffffffffffffffffffffffffff168273ffffffffffffffffffffffffffffffffffffffff167f4a39dc06d4c0dbc64b70af90fd698a233a518aa5d07e595d983b8c0526c8f7fb87876040516116bf929190612b51565b60405180910390a46116d5818787878787611ad7565b6116e3818787878787611adf565b505050505050565b600073ffffffffffffffffffffffffffffffffffffffff168473ffffffffffffffffffffffffffffffffffffffff16141561175b576040517f08c379a000000000000000000000000000000000000000000000000000000000815260040161175290612d85565b60405180910390fd5b6000611765611375565b9050600061177285611cc6565b9050600061177f85611cc6565b905061179083600089858589611acf565b8460008088815260200190815260200160002060008973ffffffffffffffffffffffffffffffffffffffff1673ffffffffffffffffffffffffffffffffffffffff16815260200190815260200160002060008282546117ef9190612f77565b925050819055508673ffffffffffffffffffffffffffffffffffffffff16600073ffffffffffffffffffffffffffffffffffffffff168473ffffffffffffffffffffffffffffffffffffffff167fc3d58168c5ae7397731d063d5bbf3d657854427343f4c083240f7aacaa2d0f62898960405161186d929190612dc0565b60405180910390a461188483600089858589611ad7565b61189383600089898989611d8c565b50505050505050565b6000600360009054906101000a900473ffffffffffffffffffffffffffffffffffffffff16905081600360006101000a81548173ffffffffffffffffffffffffffffffffffffffff021916908373ffffffffffffffffffffffffffffffffffffffff1602179055508173ffffffffffffffffffffffffffffffffffffffff168173ffffffffffffffffffffffffffffffffffffffff167f8be0079c531659141344cd1fd0a4f28419497f9722a3daafe3b4186f6b6457e060405160405180910390a35050565b8173ffffffffffffffffffffffffffffffffffffffff168373ffffffffffffffffffffffffffffffffffffffff1614156119d1576040517f08c379a00000000000000000000000000000000000000000000000000000000081526004016119c890612d25565b60405180910390fd5b80600160008573ffffffffffffffffffffffffffffffffffffffff1673ffffffffffffffffffffffffffffffffffffffff16815260200190815260200160002060008473ffffffffffffffffffffffffffffffffffffffff1673ffffffffffffffffffffffffffffffffffffffff16815260200190815260200160002060006101000a81548160ff0219169083151502179055508173ffffffffffffffffffffffffffffffffffffffff168373ffffffffffffffffffffffffffffffffffffffff167f17307eab39ab6107e8899845ad3d59bd9653f200f220920489ca2b5937696c3183604051611ac29190612b88565b60405180910390a3505050565b505050505050565b505050505050565b611afe8473ffffffffffffffffffffffffffffffffffffffff16611f73565b15611cbe578373ffffffffffffffffffffffffffffffffffffffff1663bc197c8187878686866040518663ffffffff1660e01b8152600401611b44959493929190612a4b565b602060405180830381600087803b158015611b5e57600080fd5b505af1925050508015611b8f57506040513d601f19601f82011682018060405250810190611b8c9190612585565b60015b611c3557611b9b6131bc565b806308c379a01415611bf85750611bb0613605565b80611bbb5750611bfa565b806040517f08c379a0000000000000000000000000000000000000000000000000000000008152600401611bef9190612ba3565b60405180910390fd5b505b6040517f08c379a0000000000000000000000000000000000000000000000000000000008152600401611c2c90612bc5565b60405180910390fd5b63bc197c8160e01b7bffffffffffffffffffffffffffffffffffffffffffffffffffffffff1916817bffffffffffffffffffffffffffffffffffffffffffffffffffffffff191614611cbc576040517f08c379a0000000000000000000000000000000000000000000000000000000008152600401611cb390612c05565b60405180910390fd5b505b505050505050565b60606000600167ffffffffffffffff811115611d0b577f4e487b7100000000000000000000000000000000000000000000000000000000600052604160045260246000fd5b604051908082528060200260200182016040528015611d395781602001602082028036833780820191505090505b5090508281600081518110611d77577f4e487b7100000000000000000000000000000000000000000000000000000000600052603260045260246000fd5b60200260200101818152505080915050919050565b611dab8473ffffffffffffffffffffffffffffffffffffffff16611f73565b15611f6b578373ffffffffffffffffffffffffffffffffffffffff1663f23a6e6187878686866040518663ffffffff1660e01b8152600401611df1959493929190612ab3565b602060405180830381600087803b158015611e0b57600080fd5b505af1925050508015611e3c57506040513d601f19601f82011682018060405250810190611e399190612585565b60015b611ee257611e486131bc565b806308c379a01415611ea55750611e5d613605565b80611e685750611ea7565b806040517f08c379a0000000000000000000000000000000000000000000000000000000008152600401611e9c9190612ba3565b60405180910390fd5b505b6040517f08c379a0000000000000000000000000000000000000000000000000000000008152600401611ed990612bc5565b60405180910390fd5b63f23a6e6160e01b7bffffffffffffffffffffffffffffffffffffffffffffffffffffffff1916817bffffffffffffffffffffffffffffffffffffffffffffffffffffffff191614611f69576040517f08c379a0000000000000000000000000000000000000000000000000000000008152600401611f6090612c05565b60405180910390fd5b505b505050505050565b6000808273ffffffffffffffffffffffffffffffffffffffff163b119050919050565b60405180604001604052806002905b6060815260200190600190039081611fa55790505090565b828054611fc990613083565b90600052602060002090601f016020900481019282611feb5760008555612032565b82601f1061200457805160ff1916838001178555612032565b82800160010185558215612032579182015b82811115612031578251825591602001919060010190612016565b5b50905061203f9190612043565b5090565b5b8082111561205c576000816000905550600101612044565b5090565b600061207361206e84612e0e565b612de9565b9050808382526020820190508285602086028201111561209257600080fd5b60005b858110156120c257816120a888826121b4565b845260208401935060208301925050600181019050612095565b5050509392505050565b60006120df6120da84612e3a565b612de9565b905080838252602082019050828560208602820111156120fe57600080fd5b60005b8581101561212e578161211488826122b0565b845260208401935060208301925050600181019050612101565b5050509392505050565b600061214b61214684612e66565b612de9565b90508281526020810184848401111561216357600080fd5b61216e848285613041565b509392505050565b600061218961218484612e97565b612de9565b9050828152602081018484840111156121a157600080fd5b6121ac848285613041565b509392505050565b6000813590506121c38161369b565b92915050565b600082601f8301126121da57600080fd5b81356121ea848260208601612060565b91505092915050565b600082601f83011261220457600080fd5b81356122148482602086016120cc565b91505092915050565b60008135905061222c816136b2565b92915050565b600081359050612241816136c9565b92915050565b600081519050612256816136c9565b92915050565b600082601f83011261226d57600080fd5b813561227d848260208601612138565b91505092915050565b600082601f83011261229757600080fd5b81356122a7848260208601612176565b91505092915050565b6000813590506122bf816136e0565b92915050565b6000602082840312156122d757600080fd5b60006122e5848285016121b4565b91505092915050565b6000806040838503121561230157600080fd5b600061230f858286016121b4565b9250506020612320858286016121b4565b9150509250929050565b600080600080600060a0868803121561234257600080fd5b6000612350888289016121b4565b9550506020612361888289016121b4565b945050604086013567ffffffffffffffff81111561237e57600080fd5b61238a888289016121f3565b935050606086013567ffffffffffffffff8111156123a757600080fd5b6123b3888289016121f3565b925050608086013567ffffffffffffffff8111156123d057600080fd5b6123dc8882890161225c565b9150509295509295909350565b600080600080600060a0868803121561240157600080fd5b600061240f888289016121b4565b9550506020612420888289016121b4565b9450506040612431888289016122b0565b9350506060612442888289016122b0565b925050608086013567ffffffffffffffff81111561245f57600080fd5b61246b8882890161225c565b9150509295509295909350565b6000806040838503121561248b57600080fd5b6000612499858286016121b4565b92505060206124aa8582860161221d565b9150509250929050565b600080604083850312156124c757600080fd5b60006124d5858286016121b4565b92505060206124e6858286016122b0565b9150509250929050565b6000806040838503121561250357600080fd5b600083013567ffffffffffffffff81111561251d57600080fd5b612529858286016121c9565b925050602083013567ffffffffffffffff81111561254657600080fd5b612552858286016121f3565b9150509250929050565b60006020828403121561256e57600080fd5b600061257c84828501612232565b91505092915050565b60006020828403121561259757600080fd5b60006125a584828501612247565b91505092915050565b6000602082840312156125c057600080fd5b600082013567ffffffffffffffff8111156125da57600080fd5b6125e684828501612286565b91505092915050565b60006020828403121561260157600080fd5b600061260f848285016122b0565b91505092915050565b600061262483836126c8565b905092915050565b60006126388383612a12565b60208301905092915050565b61264d81612fcd565b82525050565b600061265e82612ee2565b6126688185612f28565b93508360208202850161267a85612ec8565b8060005b858110156126b657848403895281516126978582612618565b94506126a283612f0e565b925060208a0199505060018101905061267e565b50829750879550505050505092915050565b60006126d382612eed565b6126dd8185612f33565b93506126e883612ed2565b8060005b83811015612719578151612700888261262c565b975061270b83612f1b565b9250506001810190506126ec565b5085935050505092915050565b600061273182612eed565b61273b8185612f44565b935061274683612ed2565b8060005b8381101561277757815161275e888261262c565b975061276983612f1b565b92505060018101905061274a565b5085935050505092915050565b61278d81612fdf565b82525050565b600061279e82612ef8565b6127a88185612f55565b93506127b8818560208601613050565b6127c1816131de565b840191505092915050565b60006127d782612f03565b6127e18185612f66565b93506127f1818560208601613050565b6127fa816131de565b840191505092915050565b6000612812603483612f66565b915061281d826131fc565b604082019050919050565b6000612835602f83612f66565b91506128408261324b565b604082019050919050565b6000612858602883612f66565b91506128638261329a565b604082019050919050565b600061287b602683612f66565b9150612886826132e9565b604082019050919050565b600061289e602a83612f66565b91506128a982613338565b604082019050919050565b60006128c1602583612f66565b91506128cc82613387565b604082019050919050565b60006128e4601683612f66565b91506128ef826133d6565b602082019050919050565b6000612907602a83612f66565b9150612912826133ff565b604082019050919050565b600061292a600d83612f66565b91506129358261344e565b602082019050919050565b600061294d602083612f66565b915061295882613477565b602082019050919050565b6000612970600c83612f66565b915061297b826134a0565b602082019050919050565b6000612993602983612f66565b915061299e826134c9565b604082019050919050565b60006129b6602983612f66565b91506129c182613518565b604082019050919050565b60006129d9602883612f66565b91506129e482613567565b604082019050919050565b60006129fc602183612f66565b9150612a07826135b6565b604082019050919050565b612a1b81613037565b82525050565b612a2a81613037565b82525050565b6000602082019050612a456000830184612644565b92915050565b600060a082019050612a606000830188612644565b612a6d6020830187612644565b8181036040830152612a7f8186612726565b90508181036060830152612a938185612726565b90508181036080830152612aa78184612793565b90509695505050505050565b600060a082019050612ac86000830188612644565b612ad56020830187612644565b612ae26040830186612a21565b612aef6060830185612a21565b8181036080830152612b018184612793565b90509695505050505050565b60006020820190508181036000830152612b278184612653565b905092915050565b60006020820190508181036000830152612b498184612726565b905092915050565b60006040820190508181036000830152612b6b8185612726565b90508181036020830152612b7f8184612726565b90509392505050565b6000602082019050612b9d6000830184612784565b92915050565b60006020820190508181036000830152612bbd81846127cc565b905092915050565b60006020820190508181036000830152612bde81612805565b9050919050565b60006020820190508181036000830152612bfe81612828565b9050919050565b60006020820190508181036000830152612c1e8161284b565b9050919050565b60006020820190508181036000830152612c3e8161286e565b9050919050565b60006020820190508181036000830152612c5e81612891565b9050919050565b60006020820190508181036000830152612c7e816128b4565b9050919050565b60006020820190508181036000830152612c9e816128d7565b9050919050565b60006020820190508181036000830152612cbe816128fa565b9050919050565b60006020820190508181036000830152612cde8161291d565b9050919050565b60006020820190508181036000830152612cfe81612940565b9050919050565b60006020820190508181036000830152612d1e81612963565b9050919050565b60006020820190508181036000830152612d3e81612986565b9050919050565b60006020820190508181036000830152612d5e816129a9565b9050919050565b60006020820190508181036000830152612d7e816129cc565b9050919050565b60006020820190508181036000830152612d9e816129ef565b9050919050565b6000602082019050612dba6000830184612a21565b92915050565b6000604082019050612dd56000830185612a21565b612de26020830184612a21565b9392505050565b6000612df3612e04565b9050612dff82826130b5565b919050565b6000604051905090565b600067ffffffffffffffff821115612e2957612e2861318d565b5b602082029050602081019050919050565b600067ffffffffffffffff821115612e5557612e5461318d565b5b602082029050602081019050919050565b600067ffffffffffffffff821115612e8157612e8061318d565b5b612e8a826131de565b9050602081019050919050565b600067ffffffffffffffff821115612eb257612eb161318d565b5b612ebb826131de565b9050602081019050919050565b6000819050919050565b6000819050602082019050919050565b600060029050919050565b600081519050919050565b600081519050919050565b600081519050919050565b6000602082019050919050565b6000602082019050919050565b600081905092915050565b600082825260208201905092915050565b600082825260208201905092915050565b600082825260208201905092915050565b600082825260208201905092915050565b6000612f8282613037565b9150612f8d83613037565b9250827fffffffffffffffffffffffffffffffffffffffffffffffffffffffffffffffff03821115612fc257612fc161312f565b5b828201905092915050565b6000612fd882613017565b9050919050565b60008115159050919050565b60007fffffffff0000000000000000000000000000000000000000000000000000000082169050919050565b600073ffffffffffffffffffffffffffffffffffffffff82169050919050565b6000819050919050565b82818337600083830152505050565b60005b8381101561306e578082015181840152602081019050613053565b8381111561307d576000848401525b50505050565b6000600282049050600182168061309b57607f821691505b602082108114156130af576130ae61315e565b5b50919050565b6130be826131de565b810181811067ffffffffffffffff821117156130dd576130dc61318d565b5b80604052505050565b60006130f182613037565b91507fffffffffffffffffffffffffffffffffffffffffffffffffffffffffffffffff8214156131245761312361312f565b5b600182019050919050565b7f4e487b7100000000000000000000000000000000000000000000000000000000600052601160045260246000fd5b7f4e487b7100000000000000000000000000000000000000000000000000000000600052602260045260246000fd5b7f4e487b7100000000000000000000000000000000000000000000000000000000600052604160045260246000fd5b600060033d11156131db5760046000803e6131d86000516131ef565b90505b90565b6000601f19601f8301169050919050565b60008160e01c9050919050565b7f455243313135353a207472616e7366657220746f206e6f6e204552433131353560008201527f526563656976657220696d706c656d656e746572000000000000000000000000602082015250565b7f455243313135353a2063616c6c6572206973206e6f7420746f6b656e206f776e60008201527f6572206e6f7220617070726f7665640000000000000000000000000000000000602082015250565b7f455243313135353a204552433131353552656365697665722072656a6563746560008201527f6420746f6b656e73000000000000000000000000000000000000000000000000602082015250565b7f4f776e61626c653a206e6577206f776e657220697320746865207a65726f206160008201527f6464726573730000000000000000000000000000000000000000000000000000602082015250565b7f455243313135353a2061646472657373207a65726f206973206e6f742061207660008201527f616c6964206f776e657200000000000000000000000000000000000000000000602082015250565b7f455243313135353a207472616e7366657220746f20746865207a65726f20616460008201527f6472657373000000000000000000000000000000000000000000000000000000602082015250565b7f6f6e6c79206861636b6174686f6e20666163746f727900000000000000000000600082015250565b7f455243313135353a20696e73756666696369656e742062616c616e636520666f60008201527f72207472616e7366657200000000000000000000000000000000000000000000602082015250565b7f6e6f7420737570706f7274656400000000000000000000000000000000000000600082015250565b7f4f776e61626c653a2063616c6c6572206973206e6f7420746865206f776e6572600082015250565b7f6f6e6c7920697373756572730000000000000000000000000000000000000000600082015250565b7f455243313135353a2073657474696e6720617070726f76616c2073746174757360008201527f20666f722073656c660000000000000000000000000000000000000000000000602082015250565b7f455243313135353a206163636f756e747320616e6420696473206c656e67746860008201527f206d69736d617463680000000000000000000000000000000000000000000000602082015250565b7f455243313135353a2069647320616e6420616d6f756e7473206c656e6774682060008201527f6d69736d61746368000000000000000000000000000000000000000000000000602082015250565b7f455243313135353a206d696e7420746f20746865207a65726f2061646472657360008201527f7300000000000000000000000000000000000000000000000000000000000000602082015250565b600060443d101561361557613698565b61361d612e04565b60043d036004823e80513d602482011167ffffffffffffffff82111715613645575050613698565b808201805167ffffffffffffffff8111156136635750505050613698565b80602083010160043d038501811115613680575050505050613698565b61368f826020018501866130b5565b82955050505050505b90565b6136a481612fcd565b81146136af57600080fd5b50565b6136bb81612fdf565b81146136c657600080fd5b50565b6136d281612feb565b81146136dd57600080fd5b50565b6136e981613037565b81146136f457600080fd5b5056fea2646970667358221220c32397ea8ee61bae7510361521cc0b36239dcf456d73062674ccad59ae269f6a64736f6c63430008040033",
  "linkReferences": {},
  "deployedLinkReferences": {}
}