{
  "_format": "hh-sol-artifact-1",
  "contractName": "Hackathon",
  "sourceName": "contracts/Hackathon.sol",
  "abi": [
    {
      "inputs": [
        {
          "internalType": "address",
          "name": "semaphoreAddress",
          "type": "address"
        },
        {
          "internalType": "address",
          "name": "certificateAddress",
          "type": "address"
        },
        {
          "internalType": "string",
          "name": "_name",
          "type": "string"
        },
        {
          "internalType": "uint256",
          "name": "_start",
          "type": "uint256"
        },
        {
          "internalType": "uint256",
          "name": "_submit_deadline",
          "type": "uint256"
        },
        {
          "internalType": "uint256",
          "name": "_end",
          "type": "uint256"
        },
        {
          "internalType": "string",
          "name": "_website",
          "type": "string"
        },
        {
          "internalType": "string",
          "name": "_telegram",
          "type": "string"
        },
        {
          "internalType": "string",
          "name": "_twitter",
          "type": "string"
        },
        {
          "internalType": "address[]",
          "name": "_evaluators",
          "type": "address[]"
        }
      ],
      "stateMutability": "nonpayable",
      "type": "constructor"
    },
    {
      "inputs": [
        {
          "internalType": "uint256",
          "name": "identityCommitment",
          "type": "uint256"
        }
      ],
      "name": "addVoter",
      "outputs": [],
      "stateMutability": "nonpayable",
      "type": "function"
    },
    {
      "inputs": [
        {
          "internalType": "uint256",
          "name": "voted",
          "type": "uint256"
        },
        {
          "internalType": "uint256",
          "name": "merkleTreeRoot",
          "type": "uint256"
        },
        {
          "internalType": "uint256",
          "name": "nullifierHash",
          "type": "uint256"
        },
        {
          "internalType": "uint256[8]",
          "name": "proof",
          "type": "uint256[8]"
        }
      ],
      "name": "castVote",
      "outputs": [],
      "stateMutability": "nonpayable",
      "type": "function"
    },
    {
      "inputs": [],
      "name": "certificate",
      "outputs": [
        {
          "internalType": "contract Certificate",
          "name": "",
          "type": "address"
        }
      ],
      "stateMutability": "view",
      "type": "function"
    },
    {
      "inputs": [
        {
          "internalType": "string",
          "name": "prizeName",
          "type": "string"
        }
      ],
      "name": "depositEthPrize",
      "outputs": [],
      "stateMutability": "payable",
      "type": "function"
    },
    {
      "inputs": [],
      "name": "distributePrize",
      "outputs": [],
      "stateMutability": "nonpayable",
      "type": "function"
    },
    {
      "inputs": [],
      "name": "getEvaluators",
      "outputs": [
        {
          "internalType": "address[]",
          "name": "",
          "type": "address[]"
        }
      ],
      "stateMutability": "view",
      "type": "function"
    },
    {
      "inputs": [],
      "name": "getParticipants",
      "outputs": [
        {
          "internalType": "address[]",
          "name": "",
          "type": "address[]"
        }
      ],
      "stateMutability": "view",
      "type": "function"
    },
    {
      "inputs": [],
      "name": "getTotalPrize",
      "outputs": [
        {
          "internalType": "uint256",
          "name": "",
          "type": "uint256"
        }
      ],
      "stateMutability": "view",
      "type": "function"
    },
    {
      "inputs": [],
      "name": "hackathon",
      "outputs": [
        {
          "internalType": "string",
          "name": "name",
          "type": "string"
        },
        {
          "internalType": "uint256",
          "name": "start",
          "type": "uint256"
        },
        {
          "internalType": "uint256",
          "name": "submit_deadline",
          "type": "uint256"
        },
        {
          "internalType": "uint256",
          "name": "end",
          "type": "uint256"
        },
        {
          "internalType": "string",
          "name": "website",
          "type": "string"
        },
        {
          "internalType": "string",
          "name": "telegram",
          "type": "string"
        },
        {
          "internalType": "string",
          "name": "twitter",
          "type": "string"
        }
      ],
      "stateMutability": "view",
      "type": "function"
    },
    {
      "inputs": [],
      "name": "isPrizeDistributed",
      "outputs": [
        {
          "internalType": "bool",
          "name": "",
          "type": "bool"
        }
      ],
      "stateMutability": "view",
      "type": "function"
    },
    {
      "inputs": [
        {
          "internalType": "uint256",
          "name": "",
          "type": "uint256"
        }
      ],
      "name": "participants",
      "outputs": [
        {
          "internalType": "address",
          "name": "",
          "type": "address"
        }
      ],
      "stateMutability": "view",
      "type": "function"
    },
    {
      "inputs": [],
      "name": "participate",
      "outputs": [],
      "stateMutability": "nonpayable",
      "type": "function"
    },
    {
      "inputs": [
        {
          "internalType": "uint256",
          "name": "",
          "type": "uint256"
        }
      ],
      "name": "prizes",
      "outputs": [
        {
          "internalType": "string",
          "name": "name",
          "type": "string"
        },
        {
          "internalType": "uint256",
          "name": "balance",
          "type": "uint256"
        }
      ],
      "stateMutability": "view",
      "type": "function"
    },
    {
      "inputs": [],
      "name": "semaphoreConfig",
      "outputs": [
        {
          "internalType": "contract ISemaphore",
          "name": "semaphore",
          "type": "address"
        },
        {
          "internalType": "uint256",
          "name": "groupId",
          "type": "uint256"
        }
      ],
      "stateMutability": "view",
      "type": "function"
    },
    {
      "inputs": [
        {
          "internalType": "address",
          "name": "",
          "type": "address"
        }
      ],
      "name": "votes",
      "outputs": [
        {
          "internalType": "uint256",
          "name": "",
          "type": "uint256"
        }
      ],
      "stateMutability": "view",
      "type": "function"
    }
  ],
  "bytecode": "0x60806040523480156200001157600080fd5b5060405162003428380380620034288339818101604052810190620000379190620004fe565b8642106200007c576040517f08c379a0000000000000000000000000000000000000000000000000000000008152600401620000739062000702565b60405180910390fd5b858710620000c1576040517f08c379a0000000000000000000000000000000000000000000000000000000008152600401620000b890620006e0565b60405180910390fd5b84861062000106576040517f08c379a0000000000000000000000000000000000000000000000000000000008152600401620000fd9062000724565b60405180910390fd5b89600160000160006101000a81548173ffffffffffffffffffffffffffffffffffffffff021916908373ffffffffffffffffffffffffffffffffffffffff1602179055503073ffffffffffffffffffffffffffffffffffffffff166001800181905550886000806101000a81548173ffffffffffffffffffffffffffffffffffffffff021916908373ffffffffffffffffffffffffffffffffffffffff1602179055508760036000019080519060200190620001c49291906200027d565b5086600360010181905550856003600201819055508460038001819055508360036004019080519060200190620001fd9291906200027d565b508260036005019080519060200190620002199291906200027d565b508160036006019080519060200190620002359291906200027d565b508060036007019080519060200190620002519291906200030e565b506000600c60006101000a81548160ff0219169083151502179055505050505050505050505062000a2f565b8280546200028b9062000859565b90600052602060002090601f016020900481019282620002af5760008555620002fb565b82601f10620002ca57805160ff1916838001178555620002fb565b82800160010185558215620002fb579182015b82811115620002fa578251825591602001919060010190620002dd565b5b5090506200030a91906200039d565b5090565b8280548282559060005260206000209081019282156200038a579160200282015b82811115620003895782518260006101000a81548173ffffffffffffffffffffffffffffffffffffffff021916908373ffffffffffffffffffffffffffffffffffffffff160217905550916020019190600101906200032f565b5b5090506200039991906200039d565b5090565b5b80821115620003b85760008160009055506001016200039e565b5090565b6000620003d3620003cd846200076f565b62000746565b90508083825260208201905082856020860282011115620003f357600080fd5b60005b858110156200042757816200040c888262000476565b845260208401935060208301925050600181019050620003f6565b5050509392505050565b60006200044862000442846200079e565b62000746565b9050828152602081018484840111156200046157600080fd5b6200046e84828562000823565b509392505050565b6000815190506200048781620009fb565b92915050565b600082601f8301126200049f57600080fd5b8151620004b1848260208601620003bc565b91505092915050565b600082601f830112620004cc57600080fd5b8151620004de84826020860162000431565b91505092915050565b600081519050620004f88162000a15565b92915050565b6000806000806000806000806000806101408b8d0312156200051f57600080fd5b60006200052f8d828e0162000476565b9a50506020620005428d828e0162000476565b99505060408b015167ffffffffffffffff8111156200056057600080fd5b6200056e8d828e01620004ba565b9850506060620005818d828e01620004e7565b9750506080620005948d828e01620004e7565b96505060a0620005a78d828e01620004e7565b95505060c08b015167ffffffffffffffff811115620005c557600080fd5b620005d38d828e01620004ba565b94505060e08b015167ffffffffffffffff811115620005f157600080fd5b620005ff8d828e01620004ba565b9350506101008b015167ffffffffffffffff8111156200061e57600080fd5b6200062c8d828e01620004ba565b9250506101208b015167ffffffffffffffff8111156200064b57600080fd5b620006598d828e016200048d565b9150509295989b9194979a5092959850565b60006200067a602883620007d4565b9150620006878262000934565b604082019050919050565b6000620006a1602083620007d4565b9150620006ae8262000983565b602082019050919050565b6000620006c8602683620007d4565b9150620006d582620009ac565b604082019050919050565b60006020820190508181036000830152620006fb816200066b565b9050919050565b600060208201905081810360008301526200071d8162000692565b9050919050565b600060208201905081810360008301526200073f81620006b9565b9050919050565b60006200075262000765565b90506200076082826200088f565b919050565b6000604051905090565b600067ffffffffffffffff8211156200078d576200078c620008f4565b5b602082029050602081019050919050565b600067ffffffffffffffff821115620007bc57620007bb620008f4565b5b620007c78262000923565b9050602081019050919050565b600082825260208201905092915050565b6000620007f282620007f9565b9050919050565b600073ffffffffffffffffffffffffffffffffffffffff82169050919050565b6000819050919050565b60005b838110156200084357808201518184015260208101905062000826565b8381111562000853576000848401525b50505050565b600060028204905060018216806200087257607f821691505b60208210811415620008895762000888620008c5565b5b50919050565b6200089a8262000923565b810181811067ffffffffffffffff82111715620008bc57620008bb620008f4565b5b80604052505050565b7f4e487b7100000000000000000000000000000000000000000000000000000000600052602260045260246000fd5b7f4e487b7100000000000000000000000000000000000000000000000000000000600052604160045260246000fd5b6000601f19601f8301169050919050565b7f5375626d697420646561646c696e65206d75737420626520616674657220737460008201527f6172742074696d65000000000000000000000000000000000000000000000000602082015250565b7f53746172742074696d65206d75737420626520696e2074686520667574757265600082015250565b7f456e642074696d65206d757374206265206166746572207375626d697420646560008201527f61646c696e650000000000000000000000000000000000000000000000000000602082015250565b62000a0681620007e5565b811462000a1257600080fd5b50565b62000a208162000819565b811462000a2c57600080fd5b50565b6129e98062000a3f6000396000f3fe6080604052600436106100e85760003560e01c80637e1cce0c1161008a578063d8bff5a511610059578063d8bff5a5146102a0578063d8f7a0bb146102dd578063e95d1a1e14610306578063eccb3a4f14610337576100e8565b80637e1cce0c14610217578063adeaa85114610242578063bac6f60a1461026d578063d11711a214610289576100e8565b8063517097be116100c6578063517097be1461018057806359a4fdf8146101a95780635aa68ac0146101d557806377b6e50414610200576100e8565b80632c769716146100ed5780632dbf7b981461011857806335c1d34914610143575b600080fd5b3480156100f957600080fd5b50610102610375565b60405161010f9190612110565b60405180910390f35b34801561012457600080fd5b5061012d610388565b60405161013a919061212b565b60405180910390f35b34801561014f57600080fd5b5061016a60048036038101906101659190611da5565b6103ac565b60405161017791906120aa565b60405180910390f35b34801561018c57600080fd5b506101a760048036038101906101a29190611dce565b6103eb565b005b3480156101b557600080fd5b506101be6105c3565b6040516101cc929190612146565b60405180910390f35b3480156101e157600080fd5b506101ea6105f5565b6040516101f791906120ee565b60405180910390f35b34801561020c57600080fd5b50610215610683565b005b34801561022357600080fd5b5061022c6112e7565b60405161023991906120ee565b60405180910390f35b34801561024e57600080fd5b50610257611378565b604051610264919061236a565b60405180910390f35b61028760048036038101906102829190611d64565b611403565b005b34801561029557600080fd5b5061029e6114b6565b005b3480156102ac57600080fd5b506102c760048036038101906102c29190611d3b565b61164a565b6040516102d4919061236a565b60405180910390f35b3480156102e957600080fd5b5061030460048036038101906102ff9190611da5565b611662565b005b34801561031257600080fd5b5061031b61184f565b60405161032e979695949392919061219f565b60405180910390f35b34801561034357600080fd5b5061035e60048036038101906103599190611da5565b611a9f565b60405161036c92919061216f565b60405180910390f35b600c60009054906101000a900460ff1681565b60008054906101000a900473ffffffffffffffffffffffffffffffffffffffff1681565b600d81815481106103bc57600080fd5b906000526020600020016000915054906101000a900473ffffffffffffffffffffffffffffffffffffffff1681565b60038001544210610431576040517f08c379a00000000000000000000000000000000000000000000000000000000081526004016104289061230a565b60405180910390fd5b60001515600f600084815260200190815260200160002060009054906101000a900460ff16151514610498576040517f08c379a000000000000000000000000000000000000000000000000000000000815260040161048f9061234a565b60405180910390fd5b600160000160009054906101000a900473ffffffffffffffffffffffffffffffffffffffff1673ffffffffffffffffffffffffffffffffffffffff16633bc778e360018001548587866001800154876040518763ffffffff1660e01b8152600401610508969594939291906123ae565b600060405180830381600087803b15801561052257600080fd5b505af1158015610536573d6000803e3d6000fd5b505050506001600f600084815260200190815260200160002060006101000a81548160ff0219169083151502179055506001600e60008673ffffffffffffffffffffffffffffffffffffffff1673ffffffffffffffffffffffffffffffffffffffff16815260200190815260200160002060008282546105b691906124bb565b9250508190555050505050565b60018060000160009054906101000a900473ffffffffffffffffffffffffffffffffffffffff16908060010154905082565b6060600d80548060200260200160405190810160405280929190818152602001828054801561067957602002820191906000526020600020905b8160009054906101000a900473ffffffffffffffffffffffffffffffffffffffff1673ffffffffffffffffffffffffffffffffffffffff168152602001906001019080831161062f575b5050505050905090565b600c60009054906101000a900460ff16156106d3576040517f08c379a00000000000000000000000000000000000000000000000000000000081526004016106ca9061228a565b60405180910390fd5b60038001544211610719576040517f08c379a00000000000000000000000000000000000000000000000000000000081526004016107109061222a565b60405180910390fd5b6000600b8054905011610761576040517f08c379a0000000000000000000000000000000000000000000000000000000008152600401610758906122aa565b60405180910390fd5b600047116107a4576040517f08c379a000000000000000000000000000000000000000000000000000000000815260040161079b9061224a565b60405180910390fd5b60005b600b80549050811015610abd5760006001826107c391906124bb565b90505b600b80549050811015610aa957600b818154811061080d577f4e487b7100000000000000000000000000000000000000000000000000000000600052603260045260246000fd5b906000526020600020906002020160010154600b8381548110610859577f4e487b7100000000000000000000000000000000000000000000000000000000600052603260045260246000fd5b9060005260206000209060020201600101541015610a96576000600b83815481106108ad577f4e487b7100000000000000000000000000000000000000000000000000000000600052603260045260246000fd5b90600052602060002090600202016040518060400160405290816000820180546108d6906125e3565b80601f0160208091040260200160405190810160405280929190818152602001828054610902906125e3565b801561094f5780601f106109245761010080835404028352916020019161094f565b820191906000526020600020905b81548152906001019060200180831161093257829003601f168201915b505050505081526020016001820154815250509050600b828154811061099e577f4e487b7100000000000000000000000000000000000000000000000000000000600052603260045260246000fd5b9060005260206000209060020201600b84815481106109e6577f4e487b7100000000000000000000000000000000000000000000000000000000600052603260045260246000fd5b90600052602060002090600202016000820181600001908054610a08906125e3565b610a13929190611b5b565b506001820154816001015590505080600b8381548110610a5c577f4e487b7100000000000000000000000000000000000000000000000000000000600052603260045260246000fd5b90600052602060002090600202016000820151816000019080519060200190610a86929190611be8565b5060208201518160010155905050505b8080610aa190612646565b9150506107c6565b508080610ab590612646565b9150506107a7565b5060005b600d80549050811015610e37576000600182610add91906124bb565b90505b600d80549050811015610e2357600e6000600d8381548110610b2b577f4e487b7100000000000000000000000000000000000000000000000000000000600052603260045260246000fd5b9060005260206000200160009054906101000a900473ffffffffffffffffffffffffffffffffffffffff1673ffffffffffffffffffffffffffffffffffffffff1673ffffffffffffffffffffffffffffffffffffffff16815260200190815260200160002054600e6000600d8581548110610bcf577f4e487b7100000000000000000000000000000000000000000000000000000000600052603260045260246000fd5b9060005260206000200160009054906101000a900473ffffffffffffffffffffffffffffffffffffffff1673ffffffffffffffffffffffffffffffffffffffff1673ffffffffffffffffffffffffffffffffffffffff168152602001908152602001600020541015610e10576000600d8381548110610c77577f4e487b7100000000000000000000000000000000000000000000000000000000600052603260045260246000fd5b9060005260206000200160009054906101000a900473ffffffffffffffffffffffffffffffffffffffff169050600d8281548110610cde577f4e487b7100000000000000000000000000000000000000000000000000000000600052603260045260246000fd5b9060005260206000200160009054906101000a900473ffffffffffffffffffffffffffffffffffffffff16600d8481548110610d43577f4e487b7100000000000000000000000000000000000000000000000000000000600052603260045260246000fd5b9060005260206000200160006101000a81548173ffffffffffffffffffffffffffffffffffffffff021916908373ffffffffffffffffffffffffffffffffffffffff16021790555080600d8381548110610dc6577f4e487b7100000000000000000000000000000000000000000000000000000000600052603260045260246000fd5b9060005260206000200160006101000a81548173ffffffffffffffffffffffffffffffffffffffff021916908373ffffffffffffffffffffffffffffffffffffffff160217905550505b8080610e1b90612646565b915050610ae0565b508080610e2f90612646565b915050610ac1565b506000600b8054905067ffffffffffffffff811115610e7f577f4e487b7100000000000000000000000000000000000000000000000000000000600052604160045260246000fd5b604051908082528060200260200182016040528015610ead5781602001602082028036833780820191505090505b50905060005b600b8054905081101561103357600d80549050811015610faa57600d8181548110610f07577f4e487b7100000000000000000000000000000000000000000000000000000000600052603260045260246000fd5b9060005260206000200160009054906101000a900473ffffffffffffffffffffffffffffffffffffffff16828281518110610f6b577f4e487b7100000000000000000000000000000000000000000000000000000000600052603260045260246000fd5b602002602001019073ffffffffffffffffffffffffffffffffffffffff16908173ffffffffffffffffffffffffffffffffffffffff1681525050611020565b6000828281518110610fe5577f4e487b7100000000000000000000000000000000000000000000000000000000600052603260045260246000fd5b602002602001019073ffffffffffffffffffffffffffffffffffffffff16908173ffffffffffffffffffffffffffffffffffffffff16815250505b808061102b90612646565b915050610eb3565b5060005b600b8054905081101561128157600073ffffffffffffffffffffffffffffffffffffffff16828281518110611095577f4e487b7100000000000000000000000000000000000000000000000000000000600052603260045260246000fd5b602002602001015173ffffffffffffffffffffffffffffffffffffffff161461126e578181815181106110f1577f4e487b7100000000000000000000000000000000000000000000000000000000600052603260045260246000fd5b602002602001015173ffffffffffffffffffffffffffffffffffffffff166108fc600b838154811061114c577f4e487b7100000000000000000000000000000000000000000000000000000000600052603260045260246000fd5b9060005260206000209060020201600101549081150290604051600060405180830381858888f19350505050158015611189573d6000803e3d6000fd5b5060008054906101000a900473ffffffffffffffffffffffffffffffffffffffff1673ffffffffffffffffffffffffffffffffffffffff16636ad5232b8383815181106111ff577f4e487b7100000000000000000000000000000000000000000000000000000000600052603260045260246000fd5b60200260200101513073ffffffffffffffffffffffffffffffffffffffff166040518363ffffffff1660e01b815260040161123b9291906120c5565b600060405180830381600087803b15801561125557600080fd5b505af1158015611269573d6000803e3d6000fd5b505050505b808061127990612646565b915050611037565b503373ffffffffffffffffffffffffffffffffffffffff166108fc479081150290604051600060405180830381858888f193505050501580156112c8573d6000803e3d6000fd5b506001600c60006101000a81548160ff02191690831515021790555050565b6060600360070180548060200260200160405190810160405280929190818152602001828054801561136e57602002820191906000526020600020905b8160009054906101000a900473ffffffffffffffffffffffffffffffffffffffff1673ffffffffffffffffffffffffffffffffffffffff1681526020019060010190808311611324575b5050505050905090565b6000806000905060005b600b805490508110156113fb57600b81815481106113c9577f4e487b7100000000000000000000000000000000000000000000000000000000600052603260045260246000fd5b906000526020600020906002020160010154826113e691906124bb565b915080806113f390612646565b915050611382565b508091505090565b600360020154421061144a576040517f08c379a0000000000000000000000000000000000000000000000000000000008152600401611441906122ca565b60405180910390fd5b600b604051806040016040528083815260200134815250908060018154018082558091505060019003906000526020600020906002020160009091909190915060008201518160000190805190602001906114a6929190611be8565b5060208201518160010155505050565b60036001015442106114fd576040517f08c379a00000000000000000000000000000000000000000000000000000000081526004016114f49061226a565b60405180910390fd5b600d339080600181540180825580915050600190039060005260206000200160009091909190916101000a81548173ffffffffffffffffffffffffffffffffffffffff021916908373ffffffffffffffffffffffffffffffffffffffff16021790555060008054906101000a900473ffffffffffffffffffffffffffffffffffffffff1673ffffffffffffffffffffffffffffffffffffffff1663533ede8a333073ffffffffffffffffffffffffffffffffffffffff166040518363ffffffff1660e01b81526004016115d19291906120c5565b600060405180830381600087803b1580156115eb57600080fd5b505af11580156115ff573d6000803e3d6000fd5b505050506000600e60003373ffffffffffffffffffffffffffffffffffffffff1673ffffffffffffffffffffffffffffffffffffffff16815260200190815260200160002081905550565b600e6020528060005260406000206000915090505481565b60036002015442106116a9576040517f08c379a00000000000000000000000000000000000000000000000000000000081526004016116a09061232a565b60405180910390fd5b6000805b600360070180549050811015611774573373ffffffffffffffffffffffffffffffffffffffff1660036007018281548110611711577f4e487b7100000000000000000000000000000000000000000000000000000000600052603260045260246000fd5b9060005260206000200160009054906101000a900473ffffffffffffffffffffffffffffffffffffffff1673ffffffffffffffffffffffffffffffffffffffff1614156117615760019150611774565b808061176c90612646565b9150506116ad565b50806117b5576040517f08c379a00000000000000000000000000000000000000000000000000000000081526004016117ac906122ea565b60405180910390fd5b600160000160009054906101000a900473ffffffffffffffffffffffffffffffffffffffff1673ffffffffffffffffffffffffffffffffffffffff16631783efc36001800154846040518363ffffffff1660e01b8152600401611819929190612385565b600060405180830381600087803b15801561183357600080fd5b505af1158015611847573d6000803e3d6000fd5b505050505050565b6003806000018054611860906125e3565b80601f016020809104026020016040519081016040528092919081815260200182805461188c906125e3565b80156118d95780601f106118ae576101008083540402835291602001916118d9565b820191906000526020600020905b8154815290600101906020018083116118bc57829003601f168201915b505050505090806001015490806002015490806003015490806004018054611900906125e3565b80601f016020809104026020016040519081016040528092919081815260200182805461192c906125e3565b80156119795780601f1061194e57610100808354040283529160200191611979565b820191906000526020600020905b81548152906001019060200180831161195c57829003601f168201915b50505050509080600501805461198e906125e3565b80601f01602080910402602001604051908101604052809291908181526020018280546119ba906125e3565b8015611a075780601f106119dc57610100808354040283529160200191611a07565b820191906000526020600020905b8154815290600101906020018083116119ea57829003601f168201915b505050505090806006018054611a1c906125e3565b80601f0160208091040260200160405190810160405280929190818152602001828054611a48906125e3565b8015611a955780601f10611a6a57610100808354040283529160200191611a95565b820191906000526020600020905b815481529060010190602001808311611a7857829003601f168201915b5050505050905087565b600b8181548110611aaf57600080fd5b9060005260206000209060020201600091509050806000018054611ad2906125e3565b80601f0160208091040260200160405190810160405280929190818152602001828054611afe906125e3565b8015611b4b5780601f10611b2057610100808354040283529160200191611b4b565b820191906000526020600020905b815481529060010190602001808311611b2e57829003601f168201915b5050505050908060010154905082565b828054611b67906125e3565b90600052602060002090601f016020900481019282611b895760008555611bd7565b82601f10611b9a5780548555611bd7565b82800160010185558215611bd757600052602060002091601f016020900482015b82811115611bd6578254825591600101919060010190611bbb565b5b509050611be49190611c6e565b5090565b828054611bf4906125e3565b90600052602060002090601f016020900481019282611c165760008555611c5d565b82601f10611c2f57805160ff1916838001178555611c5d565b82800160010185558215611c5d579182015b82811115611c5c578251825591602001919060010190611c41565b5b509050611c6a9190611c6e565b5090565b5b80821115611c87576000816000905550600101611c6f565b5090565b6000611c9e611c9984612435565b612410565b905082815260208101848484011115611cb657600080fd5b611cc18482856125a1565b509392505050565b600081359050611cd881612985565b92915050565b600081905082602060080282011115611cf657600080fd5b92915050565b600082601f830112611d0d57600080fd5b8135611d1d848260208601611c8b565b91505092915050565b600081359050611d358161299c565b92915050565b600060208284031215611d4d57600080fd5b6000611d5b84828501611cc9565b91505092915050565b600060208284031215611d7657600080fd5b600082013567ffffffffffffffff811115611d9057600080fd5b611d9c84828501611cfc565b91505092915050565b600060208284031215611db757600080fd5b6000611dc584828501611d26565b91505092915050565b6000806000806101608587031215611de557600080fd5b6000611df387828801611d26565b9450506020611e0487828801611d26565b9350506040611e1587828801611d26565b9250506060611e2687828801611cde565b91505092959194509250565b6000611e3e8383611e4a565b60208301905092915050565b611e5381612511565b82525050565b611e6281612511565b82525050565b6000611e7382612476565b611e7d8185612499565b9350611e8883612466565b8060005b83811015611eb9578151611ea08882611e32565b9750611eab8361248c565b925050600181019050611e8c565b5085935050505092915050565b611ed361010083836125a1565b5050565b611ee081612523565b82525050565b611eef81612559565b82525050565b611efe8161257d565b82525050565b6000611f0f82612481565b611f1981856124aa565b9350611f298185602086016125b0565b611f328161271c565b840191505092915050565b6000611f4a602c836124aa565b9150611f558261272d565b604082019050919050565b6000611f6d6018836124aa565b9150611f788261277c565b602082019050919050565b6000611f906028836124aa565b9150611f9b826127a5565b604082019050919050565b6000611fb36019836124aa565b9150611fbe826127f4565b602082019050919050565b6000611fd66016836124aa565b9150611fe18261281d565b602082019050919050565b6000611ff9602a836124aa565b915061200482612846565b604082019050919050565b600061201c601e836124aa565b915061202782612895565b602082019050919050565b600061203f6024836124aa565b915061204a826128be565b604082019050919050565b60006120626027836124aa565b915061206d8261290d565b604082019050919050565b60006120856011836124aa565b91506120908261295c565b602082019050919050565b6120a48161254f565b82525050565b60006020820190506120bf6000830184611e59565b92915050565b60006040820190506120da6000830185611e59565b6120e7602083018461209b565b9392505050565b600060208201905081810360008301526121088184611e68565b905092915050565b60006020820190506121256000830184611ed7565b92915050565b60006020820190506121406000830184611ee6565b92915050565b600060408201905061215b6000830185611ef5565b612168602083018461209b565b9392505050565b600060408201905081810360008301526121898185611f04565b9050612198602083018461209b565b9392505050565b600060e08201905081810360008301526121b9818a611f04565b90506121c8602083018961209b565b6121d5604083018861209b565b6121e2606083018761209b565b81810360808301526121f48186611f04565b905081810360a08301526122088185611f04565b905081810360c083015261221c8184611f04565b905098975050505050505050565b6000602082019050818103600083015261224381611f3d565b9050919050565b6000602082019050818103600083015261226381611f60565b9050919050565b6000602082019050818103600083015261228381611f83565b9050919050565b600060208201905081810360008301526122a381611fa6565b9050919050565b600060208201905081810360008301526122c381611fc9565b9050919050565b600060208201905081810360008301526122e381611fec565b9050919050565b600060208201905081810360008301526123038161200f565b9050919050565b6000602082019050818103600083015261232381612032565b9050919050565b6000602082019050818103600083015261234381612055565b9050919050565b6000602082019050818103600083015261236381612078565b9050919050565b600060208201905061237f600083018461209b565b92915050565b600060408201905061239a600083018561209b565b6123a7602083018461209b565b9392505050565b60006101a0820190506123c4600083018961209b565b6123d1602083018861209b565b6123de604083018761209b565b6123eb606083018661209b565b6123f8608083018561209b565b61240560a0830184611ec6565b979650505050505050565b600061241a61242b565b90506124268282612615565b919050565b6000604051905090565b600067ffffffffffffffff8211156124505761244f6126ed565b5b6124598261271c565b9050602081019050919050565b6000819050602082019050919050565b600081519050919050565b600081519050919050565b6000602082019050919050565b600082825260208201905092915050565b600082825260208201905092915050565b60006124c68261254f565b91506124d18361254f565b9250827fffffffffffffffffffffffffffffffffffffffffffffffffffffffffffffffff038211156125065761250561268f565b5b828201905092915050565b600061251c8261252f565b9050919050565b60008115159050919050565b600073ffffffffffffffffffffffffffffffffffffffff82169050919050565b6000819050919050565b60006125648261256b565b9050919050565b60006125768261252f565b9050919050565b60006125888261258f565b9050919050565b600061259a8261252f565b9050919050565b82818337600083830152505050565b60005b838110156125ce5780820151818401526020810190506125b3565b838111156125dd576000848401525b50505050565b600060028204905060018216806125fb57607f821691505b6020821081141561260f5761260e6126be565b5b50919050565b61261e8261271c565b810181811067ffffffffffffffff8211171561263d5761263c6126ed565b5b80604052505050565b60006126518261254f565b91507fffffffffffffffffffffffffffffffffffffffffffffffffffffffffffffffff8214156126845761268361268f565b5b600182019050919050565b7f4e487b7100000000000000000000000000000000000000000000000000000000600052601160045260246000fd5b7f4e487b7100000000000000000000000000000000000000000000000000000000600052602260045260246000fd5b7f4e487b7100000000000000000000000000000000000000000000000000000000600052604160045260246000fd5b6000601f19601f8301169050919050565b7f43616e6e6f742064697374726962757465207072697a65206265666f7265206860008201527f61636b6174686f6e20656e640000000000000000000000000000000000000000602082015250565b7f4e6f2062616c616e636520746f20646973747269627574650000000000000000600082015250565b7f43616e6e6f74207061727469636970617465206166746572206861636b61746860008201527f6f6e207374617274000000000000000000000000000000000000000000000000602082015250565b7f5072697a6520616c726561647920646973747269627574656400000000000000600082015250565b7f4e6f207072697a6520746f206469737472696275746500000000000000000000600082015250565b7f43616e6e6f74206465706f736974207072697a65206166746572207375626d6960008201527f7420646561646c696e6500000000000000000000000000000000000000000000602082015250565b7f4f6e6c79206576616c7561746f72732063616e206a6f696e2067726f75700000600082015250565b7f43616e6e6f74206361737420766f7465206166746572206861636b6174686f6e60008201527f20656e6400000000000000000000000000000000000000000000000000000000602082015250565b7f43616e6e6f74206a6f696e2067726f7570206166746572207375626d6974206460008201527f6561646c696e6500000000000000000000000000000000000000000000000000602082015250565b7f43616e6e6f7420766f7465207477696365000000000000000000000000000000600082015250565b61298e81612511565b811461299957600080fd5b50565b6129a58161254f565b81146129b057600080fd5b5056fea26469706673582212207f0032db28940615aee24d62d8851f768c2d6b426dcb8d33ded16f280770352664736f6c63430008040033",
  "linkReferences": {},
  "deployedLinkReferences": {}
}