{
  "_format": "hh-sol-artifact-1",
  "contractName": "HackathonFactory",
  "sourceName": "contracts/HackathonFactory.sol",
  "abi": [
    {
      "inputs": [
        {
          "internalType": "address",
          "name": "semaphoreAddress",
          "type": "address"
        }
      ],
      "stateMutability": "nonpayable",
      "type": "constructor"
    },
    {
      "inputs": [],
      "name": "certificate",
      "outputs": [
        {
          "internalType": "contract Certificate",
          "name": "",
          "type": "address"
        }
      ],
      "stateMutability": "view",
      "type": "function"
    },
    {
      "inputs": [
        {
          "internalType": "string",
          "name": "_name",
          "type": "string"
        },
        {
          "internalType": "uint256",
          "name": "_start",
          "type": "uint256"
        },
        {
          "internalType": "uint256",
          "name": "_submit_deadline",
          "type": "uint256"
        },
        {
          "internalType": "uint256",
          "name": "_end",
          "type": "uint256"
        },
        {
          "internalType": "string",
          "name": "_website",
          "type": "string"
        },
        {
          "internalType": "string",
          "name": "_telegram",
          "type": "string"
        },
        {
          "internalType": "string",
          "name": "_twitter",
          "type": "string"
        },
        {
          "internalType": "address[]",
          "name": "_evaluators",
          "type": "address[]"
        }
      ],
      "name": "createMiniHackathon",
      "outputs": [
        {
          "internalType": "address",
          "name": "",
          "type": "address"
        }
      ],
      "stateMutability": "nonpayable",
      "type": "function"
    },
    {
      "inputs": [],
      "name": "getDeployedHackathons",
      "outputs": [
        {
          "internalType": "address[]",
          "name": "",
          "type": "address[]"
        }
      ],
      "stateMutability": "view",
      "type": "function"
    },
    {
      "inputs": [
        {
          "internalType": "uint256",
          "name": "",
          "type": "uint256"
        }
      ],
      "name": "hackathons",
      "outputs": [
        {
          "internalType": "address",
          "name": "",
          "type": "address"
        }
      ],
      "stateMutability": "view",
      "type": "function"
    },
    {
      "inputs": [],
      "name": "semaphore",
      "outputs": [
        {
          "internalType": "contract ISemaphore",
          "name": "",
          "type": "address"
        }
      ],
      "stateMutability": "view",
      "type": "function"
    }
  ],
  "bytecode": "0x60806040523480156200001157600080fd5b5060405162007ead38038062007ead83398181016040528101906200003791906200011c565b806000806101000a81548173ffffffffffffffffffffffffffffffffffffffff021916908373ffffffffffffffffffffffffffffffffffffffff160217905550306040516200008690620000f7565b62000092919062000180565b604051809103906000f080158015620000af573d6000803e3d6000fd5b50600260006101000a81548173ffffffffffffffffffffffffffffffffffffffff021916908373ffffffffffffffffffffffffffffffffffffffff1602179055505062000260565b613c2b806200428283390190565b600081519050620001168162000246565b92915050565b6000602082840312156200012f57600080fd5b60006200013f8482850162000105565b91505092915050565b6200015381620001c3565b82525050565b600062000168602a83620001b2565b91506200017582620001f7565b604082019050919050565b600060408201905081810360008301526200019b8162000159565b9050620001ac602083018462000148565b92915050565b600082825260208201905092915050565b6000620001d082620001d7565b9050919050565b600073ffffffffffffffffffffffffffffffffffffffff82169050919050565b7f68747470733a2f2f6465636f6861636b732e636f6d2f6170692f63657274696660008201527f69636174652f7b69647d00000000000000000000000000000000000000000000602082015250565b6200025181620001c3565b81146200025d57600080fd5b50565b61401280620002706000396000f3fe60806040523480156200001157600080fd5b50600436106200005e5760003560e01c806307366a2b14620000635780632dbf7b9814620000995780637b5d253414620000bb578063c107719414620000dd578063c6e620d11462000113575b600080fd5b6200008160048036038101906200007b9190620005e5565b62000135565b6040516200009091906200087c565b60405180910390f35b620000a36200037b565b604051620000b2919062000990565b60405180910390f35b620000c5620003a1565b604051620000d49190620009ad565b60405180910390f35b620000fb6004803603810190620000f5919062000725565b620003c5565b6040516200010a91906200087c565b60405180910390f35b6200011d62000405565b6040516200012c91906200096c565b60405180910390f35b60008060008054906101000a900473ffffffffffffffffffffffffffffffffffffffff16600260009054906101000a900473ffffffffffffffffffffffffffffffffffffffff168b8b8b8b8b8b8b8b604051620001929062000495565b620001a79a9998979695949392919062000899565b604051809103906000f080158015620001c4573d6000803e3d6000fd5b509050600081905060008054906101000a900473ffffffffffffffffffffffffffffffffffffffff1673ffffffffffffffffffffffffffffffffffffffff16639c1121418273ffffffffffffffffffffffffffffffffffffffff166014846040518463ffffffff1660e01b81526004016200024293929190620009ca565b600060405180830381600087803b1580156200025d57600080fd5b505af115801562000272573d6000803e3d6000fd5b505050506001819080600181540180825580915050600190039060005260206000200160009091909190916101000a81548173ffffffffffffffffffffffffffffffffffffffff021916908373ffffffffffffffffffffffffffffffffffffffff160217905550600260009054906101000a900473ffffffffffffffffffffffffffffffffffffffff1673ffffffffffffffffffffffffffffffffffffffff166320694db0826040518263ffffffff1660e01b81526004016200033691906200087c565b600060405180830381600087803b1580156200035157600080fd5b505af115801562000366573d6000803e3d6000fd5b50505050809250505098975050505050505050565b600260009054906101000a900473ffffffffffffffffffffffffffffffffffffffff1681565b60008054906101000a900473ffffffffffffffffffffffffffffffffffffffff1681565b60018181548110620003d657600080fd5b906000526020600020016000915054906101000a900473ffffffffffffffffffffffffffffffffffffffff1681565b606060018054806020026020016040519081016040528092919081815260200182805480156200048b57602002820191906000526020600020905b8160009054906101000a900473ffffffffffffffffffffffffffffffffffffffff1673ffffffffffffffffffffffffffffffffffffffff168152602001906001019080831162000440575b5050505050905090565b6133618062000c7c83390190565b6000620004ba620004b48462000a30565b62000a07565b90508083825260208201905082856020860282011115620004da57600080fd5b60005b858110156200050e5781620004f388826200055d565b845260208401935060208301925050600181019050620004dd565b5050509392505050565b60006200052f620005298462000a5f565b62000a07565b9050828152602081018484840111156200054857600080fd5b6200055584828562000b8c565b509392505050565b6000813590506200056e8162000c47565b92915050565b600082601f8301126200058657600080fd5b813562000598848260208601620004a3565b91505092915050565b600082601f830112620005b357600080fd5b8135620005c584826020860162000518565b91505092915050565b600081359050620005df8162000c61565b92915050565b600080600080600080600080610100898b0312156200060357600080fd5b600089013567ffffffffffffffff8111156200061e57600080fd5b6200062c8b828c01620005a1565b98505060206200063f8b828c01620005ce565b9750506040620006528b828c01620005ce565b9650506060620006658b828c01620005ce565b955050608089013567ffffffffffffffff8111156200068357600080fd5b620006918b828c01620005a1565b94505060a089013567ffffffffffffffff811115620006af57600080fd5b620006bd8b828c01620005a1565b93505060c089013567ffffffffffffffff811115620006db57600080fd5b620006e98b828c01620005a1565b92505060e089013567ffffffffffffffff8111156200070757600080fd5b620007158b828c0162000574565b9150509295985092959890939650565b6000602082840312156200073857600080fd5b60006200074884828501620005ce565b91505092915050565b60006200075f83836200076b565b60208301905092915050565b620007768162000aea565b82525050565b620007878162000aea565b82525050565b60006200079a8262000aa5565b620007a6818562000ac8565b9350620007b38362000a95565b8060005b83811015620007ea578151620007ce888262000751565b9750620007db8362000abb565b925050600181019050620007b7565b5085935050505092915050565b620008028162000b28565b82525050565b620008138162000b50565b82525050565b620008248162000b78565b82525050565b6000620008378262000ab0565b62000843818562000ad9565b93506200085581856020860162000b9b565b620008608162000c36565b840191505092915050565b620008768162000b1e565b82525050565b60006020820190506200089360008301846200077c565b92915050565b600061014082019050620008b1600083018d6200077c565b620008c0602083018c6200077c565b8181036040830152620008d4818b6200082a565b9050620008e5606083018a6200086b565b620008f460808301896200086b565b6200090360a08301886200086b565b81810360c08301526200091781876200082a565b905081810360e08301526200092d81866200082a565b90508181036101008301526200094481856200082a565b90508181036101208301526200095b81846200078d565b90509b9a5050505050505050505050565b600060208201905081810360008301526200098881846200078d565b905092915050565b6000602082019050620009a76000830184620007f7565b92915050565b6000602082019050620009c4600083018462000808565b92915050565b6000606082019050620009e160008301866200086b565b620009f0602083018562000819565b620009ff60408301846200077c565b949350505050565b600062000a1362000a26565b905062000a21828262000bd1565b919050565b6000604051905090565b600067ffffffffffffffff82111562000a4e5762000a4d62000c07565b5b602082029050602081019050919050565b600067ffffffffffffffff82111562000a7d5762000a7c62000c07565b5b62000a888262000c36565b9050602081019050919050565b6000819050602082019050919050565b600081519050919050565b600081519050919050565b6000602082019050919050565b600082825260208201905092915050565b600082825260208201905092915050565b600062000af78262000afe565b9050919050565b600073ffffffffffffffffffffffffffffffffffffffff82169050919050565b6000819050919050565b600062000b358262000b3c565b9050919050565b600062000b498262000afe565b9050919050565b600062000b5d8262000b64565b9050919050565b600062000b718262000afe565b9050919050565b600062000b858262000b1e565b9050919050565b82818337600083830152505050565b60005b8381101562000bbb57808201518184015260208101905062000b9e565b8381111562000bcb576000848401525b50505050565b62000bdc8262000c36565b810181811067ffffffffffffffff8211171562000bfe5762000bfd62000c07565b5b80604052505050565b7f4e487b7100000000000000000000000000000000000000000000000000000000600052604160045260246000fd5b6000601f19601f8301169050919050565b62000c528162000aea565b811462000c5e57600080fd5b50565b62000c6c8162000b1e565b811462000c7857600080fd5b5056fe60806040523480156200001157600080fd5b5060405162003361380380620033618339818101604052810190620000379190620004fe565b8642106200007c576040517f08c379a0000000000000000000000000000000000000000000000000000000008152600401620000739062000702565b60405180910390fd5b858710620000c1576040517f08c379a0000000000000000000000000000000000000000000000000000000008152600401620000b890620006e0565b60405180910390fd5b84861062000106576040517f08c379a0000000000000000000000000000000000000000000000000000000008152600401620000fd9062000724565b60405180910390fd5b89600160000160006101000a81548173ffffffffffffffffffffffffffffffffffffffff021916908373ffffffffffffffffffffffffffffffffffffffff1602179055503073ffffffffffffffffffffffffffffffffffffffff166001800181905550886000806101000a81548173ffffffffffffffffffffffffffffffffffffffff021916908373ffffffffffffffffffffffffffffffffffffffff1602179055508760036000019080519060200190620001c49291906200027d565b5086600360010181905550856003600201819055508460038001819055508360036004019080519060200190620001fd9291906200027d565b508260036005019080519060200190620002199291906200027d565b508160036006019080519060200190620002359291906200027d565b508060036007019080519060200190620002519291906200030e565b506000600c60006101000a81548160ff0219169083151502179055505050505050505050505062000a2f565b8280546200028b9062000859565b90600052602060002090601f016020900481019282620002af5760008555620002fb565b82601f10620002ca57805160ff1916838001178555620002fb565b82800160010185558215620002fb579182015b82811115620002fa578251825591602001919060010190620002dd565b5b5090506200030a91906200039d565b5090565b8280548282559060005260206000209081019282156200038a579160200282015b82811115620003895782518260006101000a81548173ffffffffffffffffffffffffffffffffffffffff021916908373ffffffffffffffffffffffffffffffffffffffff160217905550916020019190600101906200032f565b5b5090506200039991906200039d565b5090565b5b80821115620003b85760008160009055506001016200039e565b5090565b6000620003d3620003cd846200076f565b62000746565b90508083825260208201905082856020860282011115620003f357600080fd5b60005b858110156200042757816200040c888262000476565b845260208401935060208301925050600181019050620003f6565b5050509392505050565b60006200044862000442846200079e565b62000746565b9050828152602081018484840111156200046157600080fd5b6200046e84828562000823565b509392505050565b6000815190506200048781620009fb565b92915050565b600082601f8301126200049f57600080fd5b8151620004b1848260208601620003bc565b91505092915050565b600082601f830112620004cc57600080fd5b8151620004de84826020860162000431565b91505092915050565b600081519050620004f88162000a15565b92915050565b6000806000806000806000806000806101408b8d0312156200051f57600080fd5b60006200052f8d828e0162000476565b9a50506020620005428d828e0162000476565b99505060408b015167ffffffffffffffff8111156200056057600080fd5b6200056e8d828e01620004ba565b9850506060620005818d828e01620004e7565b9750506080620005948d828e01620004e7565b96505060a0620005a78d828e01620004e7565b95505060c08b015167ffffffffffffffff811115620005c557600080fd5b620005d38d828e01620004ba565b94505060e08b015167ffffffffffffffff811115620005f157600080fd5b620005ff8d828e01620004ba565b9350506101008b015167ffffffffffffffff8111156200061e57600080fd5b6200062c8d828e01620004ba565b9250506101208b015167ffffffffffffffff8111156200064b57600080fd5b620006598d828e016200048d565b9150509295989b9194979a5092959850565b60006200067a602883620007d4565b9150620006878262000934565b604082019050919050565b6000620006a1602083620007d4565b9150620006ae8262000983565b602082019050919050565b6000620006c8602683620007d4565b9150620006d582620009ac565b604082019050919050565b60006020820190508181036000830152620006fb816200066b565b9050919050565b600060208201905081810360008301526200071d8162000692565b9050919050565b600060208201905081810360008301526200073f81620006b9565b9050919050565b60006200075262000765565b90506200076082826200088f565b919050565b6000604051905090565b600067ffffffffffffffff8211156200078d576200078c620008f4565b5b602082029050602081019050919050565b600067ffffffffffffffff821115620007bc57620007bb620008f4565b5b620007c78262000923565b9050602081019050919050565b600082825260208201905092915050565b6000620007f282620007f9565b9050919050565b600073ffffffffffffffffffffffffffffffffffffffff82169050919050565b6000819050919050565b60005b838110156200084357808201518184015260208101905062000826565b8381111562000853576000848401525b50505050565b600060028204905060018216806200087257607f821691505b60208210811415620008895762000888620008c5565b5b50919050565b6200089a8262000923565b810181811067ffffffffffffffff82111715620008bc57620008bb620008f4565b5b80604052505050565b7f4e487b7100000000000000000000000000000000000000000000000000000000600052602260045260246000fd5b7f4e487b7100000000000000000000000000000000000000000000000000000000600052604160045260246000fd5b6000601f19601f8301169050919050565b7f5375626d697420646561646c696e65206d75737420626520616674657220737460008201527f6172742074696d65000000000000000000000000000000000000000000000000602082015250565b7f53746172742074696d65206d75737420626520696e2074686520667574757265600082015250565b7f456e642074696d65206d757374206265206166746572207375626d697420646560008201527f61646c696e650000000000000000000000000000000000000000000000000000602082015250565b62000a0681620007e5565b811462000a1257600080fd5b50565b62000a208162000819565b811462000a2c57600080fd5b50565b6129228062000a3f6000396000f3fe6080604052600436106100dd5760003560e01c8063adeaa8511161007f578063d8bff5a511610059578063d8bff5a51461026a578063d8f7a0bb146102a7578063e95d1a1e146102d0578063eccb3a4f14610301576100dd565b8063adeaa8511461020c578063bac6f60a14610237578063d11711a214610253576100dd565b8063517097be116100bb578063517097be1461017557806359a4fdf81461019e5780635aa68ac0146101ca57806377b6e504146101f5576100dd565b80632c769716146100e25780632dbf7b981461010d57806335c1d34914610138575b600080fd5b3480156100ee57600080fd5b506100f761033f565b6040516101049190612049565b60405180910390f35b34801561011957600080fd5b50610122610352565b60405161012f9190612064565b60405180910390f35b34801561014457600080fd5b5061015f600480360381019061015a9190611cde565b610376565b60405161016c9190611fe3565b60405180910390f35b34801561018157600080fd5b5061019c60048036038101906101979190611d07565b6103b5565b005b3480156101aa57600080fd5b506101b361058d565b6040516101c192919061207f565b60405180910390f35b3480156101d657600080fd5b506101df6105bf565b6040516101ec9190612027565b60405180910390f35b34801561020157600080fd5b5061020a61064d565b005b34801561021857600080fd5b506102216112b1565b60405161022e91906122a3565b60405180910390f35b610251600480360381019061024c9190611c9d565b61133c565b005b34801561025f57600080fd5b506102686113ef565b005b34801561027657600080fd5b50610291600480360381019061028c9190611c74565b611583565b60405161029e91906122a3565b60405180910390f35b3480156102b357600080fd5b506102ce60048036038101906102c99190611cde565b61159b565b005b3480156102dc57600080fd5b506102e5611788565b6040516102f897969594939291906120d8565b60405180910390f35b34801561030d57600080fd5b5061032860048036038101906103239190611cde565b6119d8565b6040516103369291906120a8565b60405180910390f35b600c60009054906101000a900460ff1681565b60008054906101000a900473ffffffffffffffffffffffffffffffffffffffff1681565b600d818154811061038657600080fd5b906000526020600020016000915054906101000a900473ffffffffffffffffffffffffffffffffffffffff1681565b600380015442106103fb576040517f08c379a00000000000000000000000000000000000000000000000000000000081526004016103f290612243565b60405180910390fd5b60001515600f600084815260200190815260200160002060009054906101000a900460ff16151514610462576040517f08c379a000000000000000000000000000000000000000000000000000000000815260040161045990612283565b60405180910390fd5b600160000160009054906101000a900473ffffffffffffffffffffffffffffffffffffffff1673ffffffffffffffffffffffffffffffffffffffff16633bc778e360018001548587866001800154876040518763ffffffff1660e01b81526004016104d2969594939291906122e7565b600060405180830381600087803b1580156104ec57600080fd5b505af1158015610500573d6000803e3d6000fd5b505050506001600f600084815260200190815260200160002060006101000a81548160ff0219169083151502179055506001600e60008673ffffffffffffffffffffffffffffffffffffffff1673ffffffffffffffffffffffffffffffffffffffff168152602001908152602001600020600082825461058091906123f4565b9250508190555050505050565b60018060000160009054906101000a900473ffffffffffffffffffffffffffffffffffffffff16908060010154905082565b6060600d80548060200260200160405190810160405280929190818152602001828054801561064357602002820191906000526020600020905b8160009054906101000a900473ffffffffffffffffffffffffffffffffffffffff1673ffffffffffffffffffffffffffffffffffffffff16815260200190600101908083116105f9575b5050505050905090565b600c60009054906101000a900460ff161561069d576040517f08c379a0000000000000000000000000000000000000000000000000000000008152600401610694906121c3565b60405180910390fd5b600380015442116106e3576040517f08c379a00000000000000000000000000000000000000000000000000000000081526004016106da90612163565b60405180910390fd5b6000600b805490501161072b576040517f08c379a0000000000000000000000000000000000000000000000000000000008152600401610722906121e3565b60405180910390fd5b6000471161076e576040517f08c379a000000000000000000000000000000000000000000000000000000000815260040161076590612183565b60405180910390fd5b60005b600b80549050811015610a8757600060018261078d91906123f4565b90505b600b80549050811015610a7357600b81815481106107d7577f4e487b7100000000000000000000000000000000000000000000000000000000600052603260045260246000fd5b906000526020600020906002020160010154600b8381548110610823577f4e487b7100000000000000000000000000000000000000000000000000000000600052603260045260246000fd5b9060005260206000209060020201600101541015610a60576000600b8381548110610877577f4e487b7100000000000000000000000000000000000000000000000000000000600052603260045260246000fd5b90600052602060002090600202016040518060400160405290816000820180546108a09061251c565b80601f01602080910402602001604051908101604052809291908181526020018280546108cc9061251c565b80156109195780601f106108ee57610100808354040283529160200191610919565b820191906000526020600020905b8154815290600101906020018083116108fc57829003601f168201915b505050505081526020016001820154815250509050600b8281548110610968577f4e487b7100000000000000000000000000000000000000000000000000000000600052603260045260246000fd5b9060005260206000209060020201600b84815481106109b0577f4e487b7100000000000000000000000000000000000000000000000000000000600052603260045260246000fd5b906000526020600020906002020160008201816000019080546109d29061251c565b6109dd929190611a94565b506001820154816001015590505080600b8381548110610a26577f4e487b7100000000000000000000000000000000000000000000000000000000600052603260045260246000fd5b90600052602060002090600202016000820151816000019080519060200190610a50929190611b21565b5060208201518160010155905050505b8080610a6b9061257f565b915050610790565b508080610a7f9061257f565b915050610771565b5060005b600d80549050811015610e01576000600182610aa791906123f4565b90505b600d80549050811015610ded57600e6000600d8381548110610af5577f4e487b7100000000000000000000000000000000000000000000000000000000600052603260045260246000fd5b9060005260206000200160009054906101000a900473ffffffffffffffffffffffffffffffffffffffff1673ffffffffffffffffffffffffffffffffffffffff1673ffffffffffffffffffffffffffffffffffffffff16815260200190815260200160002054600e6000600d8581548110610b99577f4e487b7100000000000000000000000000000000000000000000000000000000600052603260045260246000fd5b9060005260206000200160009054906101000a900473ffffffffffffffffffffffffffffffffffffffff1673ffffffffffffffffffffffffffffffffffffffff1673ffffffffffffffffffffffffffffffffffffffff168152602001908152602001600020541015610dda576000600d8381548110610c41577f4e487b7100000000000000000000000000000000000000000000000000000000600052603260045260246000fd5b9060005260206000200160009054906101000a900473ffffffffffffffffffffffffffffffffffffffff169050600d8281548110610ca8577f4e487b7100000000000000000000000000000000000000000000000000000000600052603260045260246000fd5b9060005260206000200160009054906101000a900473ffffffffffffffffffffffffffffffffffffffff16600d8481548110610d0d577f4e487b7100000000000000000000000000000000000000000000000000000000600052603260045260246000fd5b9060005260206000200160006101000a81548173ffffffffffffffffffffffffffffffffffffffff021916908373ffffffffffffffffffffffffffffffffffffffff16021790555080600d8381548110610d90577f4e487b7100000000000000000000000000000000000000000000000000000000600052603260045260246000fd5b9060005260206000200160006101000a81548173ffffffffffffffffffffffffffffffffffffffff021916908373ffffffffffffffffffffffffffffffffffffffff160217905550505b8080610de59061257f565b915050610aaa565b508080610df99061257f565b915050610a8b565b506000600b8054905067ffffffffffffffff811115610e49577f4e487b7100000000000000000000000000000000000000000000000000000000600052604160045260246000fd5b604051908082528060200260200182016040528015610e775781602001602082028036833780820191505090505b50905060005b600b80549050811015610ffd57600d80549050811015610f7457600d8181548110610ed1577f4e487b7100000000000000000000000000000000000000000000000000000000600052603260045260246000fd5b9060005260206000200160009054906101000a900473ffffffffffffffffffffffffffffffffffffffff16828281518110610f35577f4e487b7100000000000000000000000000000000000000000000000000000000600052603260045260246000fd5b602002602001019073ffffffffffffffffffffffffffffffffffffffff16908173ffffffffffffffffffffffffffffffffffffffff1681525050610fea565b6000828281518110610faf577f4e487b7100000000000000000000000000000000000000000000000000000000600052603260045260246000fd5b602002602001019073ffffffffffffffffffffffffffffffffffffffff16908173ffffffffffffffffffffffffffffffffffffffff16815250505b8080610ff59061257f565b915050610e7d565b5060005b600b8054905081101561124b57600073ffffffffffffffffffffffffffffffffffffffff1682828151811061105f577f4e487b7100000000000000000000000000000000000000000000000000000000600052603260045260246000fd5b602002602001015173ffffffffffffffffffffffffffffffffffffffff1614611238578181815181106110bb577f4e487b7100000000000000000000000000000000000000000000000000000000600052603260045260246000fd5b602002602001015173ffffffffffffffffffffffffffffffffffffffff166108fc600b8381548110611116577f4e487b7100000000000000000000000000000000000000000000000000000000600052603260045260246000fd5b9060005260206000209060020201600101549081150290604051600060405180830381858888f19350505050158015611153573d6000803e3d6000fd5b5060008054906101000a900473ffffffffffffffffffffffffffffffffffffffff1673ffffffffffffffffffffffffffffffffffffffff16636ad5232b8383815181106111c9577f4e487b7100000000000000000000000000000000000000000000000000000000600052603260045260246000fd5b60200260200101513073ffffffffffffffffffffffffffffffffffffffff166040518363ffffffff1660e01b8152600401611205929190611ffe565b600060405180830381600087803b15801561121f57600080fd5b505af1158015611233573d6000803e3d6000fd5b505050505b80806112439061257f565b915050611001565b503373ffffffffffffffffffffffffffffffffffffffff166108fc479081150290604051600060405180830381858888f19350505050158015611292573d6000803e3d6000fd5b506001600c60006101000a81548160ff02191690831515021790555050565b6000806000905060005b600b8054905081101561133457600b8181548110611302577f4e487b7100000000000000000000000000000000000000000000000000000000600052603260045260246000fd5b9060005260206000209060020201600101548261131f91906123f4565b9150808061132c9061257f565b9150506112bb565b508091505090565b6003600201544210611383576040517f08c379a000000000000000000000000000000000000000000000000000000000815260040161137a90612203565b60405180910390fd5b600b604051806040016040528083815260200134815250908060018154018082558091505060019003906000526020600020906002020160009091909190915060008201518160000190805190602001906113df929190611b21565b5060208201518160010155505050565b6003600101544210611436576040517f08c379a000000000000000000000000000000000000000000000000000000000815260040161142d906121a3565b60405180910390fd5b600d339080600181540180825580915050600190039060005260206000200160009091909190916101000a81548173ffffffffffffffffffffffffffffffffffffffff021916908373ffffffffffffffffffffffffffffffffffffffff16021790555060008054906101000a900473ffffffffffffffffffffffffffffffffffffffff1673ffffffffffffffffffffffffffffffffffffffff1663533ede8a333073ffffffffffffffffffffffffffffffffffffffff166040518363ffffffff1660e01b815260040161150a929190611ffe565b600060405180830381600087803b15801561152457600080fd5b505af1158015611538573d6000803e3d6000fd5b505050506000600e60003373ffffffffffffffffffffffffffffffffffffffff1673ffffffffffffffffffffffffffffffffffffffff16815260200190815260200160002081905550565b600e6020528060005260406000206000915090505481565b60036002015442106115e2576040517f08c379a00000000000000000000000000000000000000000000000000000000081526004016115d990612263565b60405180910390fd5b6000805b6003600701805490508110156116ad573373ffffffffffffffffffffffffffffffffffffffff166003600701828154811061164a577f4e487b7100000000000000000000000000000000000000000000000000000000600052603260045260246000fd5b9060005260206000200160009054906101000a900473ffffffffffffffffffffffffffffffffffffffff1673ffffffffffffffffffffffffffffffffffffffff16141561169a57600191506116ad565b80806116a59061257f565b9150506115e6565b50806116ee576040517f08c379a00000000000000000000000000000000000000000000000000000000081526004016116e590612223565b60405180910390fd5b600160000160009054906101000a900473ffffffffffffffffffffffffffffffffffffffff1673ffffffffffffffffffffffffffffffffffffffff16631783efc36001800154846040518363ffffffff1660e01b81526004016117529291906122be565b600060405180830381600087803b15801561176c57600080fd5b505af1158015611780573d6000803e3d6000fd5b505050505050565b60038060000180546117999061251c565b80601f01602080910402602001604051908101604052809291908181526020018280546117c59061251c565b80156118125780601f106117e757610100808354040283529160200191611812565b820191906000526020600020905b8154815290600101906020018083116117f557829003601f168201915b5050505050908060010154908060020154908060030154908060040180546118399061251c565b80601f01602080910402602001604051908101604052809291908181526020018280546118659061251c565b80156118b25780601f10611887576101008083540402835291602001916118b2565b820191906000526020600020905b81548152906001019060200180831161189557829003601f168201915b5050505050908060050180546118c79061251c565b80601f01602080910402602001604051908101604052809291908181526020018280546118f39061251c565b80156119405780601f1061191557610100808354040283529160200191611940565b820191906000526020600020905b81548152906001019060200180831161192357829003601f168201915b5050505050908060060180546119559061251c565b80601f01602080910402602001604051908101604052809291908181526020018280546119819061251c565b80156119ce5780601f106119a3576101008083540402835291602001916119ce565b820191906000526020600020905b8154815290600101906020018083116119b157829003601f168201915b5050505050905087565b600b81815481106119e857600080fd5b9060005260206000209060020201600091509050806000018054611a0b9061251c565b80601f0160208091040260200160405190810160405280929190818152602001828054611a379061251c565b8015611a845780601f10611a5957610100808354040283529160200191611a84565b820191906000526020600020905b815481529060010190602001808311611a6757829003601f168201915b5050505050908060010154905082565b828054611aa09061251c565b90600052602060002090601f016020900481019282611ac25760008555611b10565b82601f10611ad35780548555611b10565b82800160010185558215611b1057600052602060002091601f016020900482015b82811115611b0f578254825591600101919060010190611af4565b5b509050611b1d9190611ba7565b5090565b828054611b2d9061251c565b90600052602060002090601f016020900481019282611b4f5760008555611b96565b82601f10611b6857805160ff1916838001178555611b96565b82800160010185558215611b96579182015b82811115611b95578251825591602001919060010190611b7a565b5b509050611ba39190611ba7565b5090565b5b80821115611bc0576000816000905550600101611ba8565b5090565b6000611bd7611bd28461236e565b612349565b905082815260208101848484011115611bef57600080fd5b611bfa8482856124da565b509392505050565b600081359050611c11816128be565b92915050565b600081905082602060080282011115611c2f57600080fd5b92915050565b600082601f830112611c4657600080fd5b8135611c56848260208601611bc4565b91505092915050565b600081359050611c6e816128d5565b92915050565b600060208284031215611c8657600080fd5b6000611c9484828501611c02565b91505092915050565b600060208284031215611caf57600080fd5b600082013567ffffffffffffffff811115611cc957600080fd5b611cd584828501611c35565b91505092915050565b600060208284031215611cf057600080fd5b6000611cfe84828501611c5f565b91505092915050565b6000806000806101608587031215611d1e57600080fd5b6000611d2c87828801611c5f565b9450506020611d3d87828801611c5f565b9350506040611d4e87828801611c5f565b9250506060611d5f87828801611c17565b91505092959194509250565b6000611d778383611d83565b60208301905092915050565b611d8c8161244a565b82525050565b611d9b8161244a565b82525050565b6000611dac826123af565b611db681856123d2565b9350611dc18361239f565b8060005b83811015611df2578151611dd98882611d6b565b9750611de4836123c5565b925050600181019050611dc5565b5085935050505092915050565b611e0c61010083836124da565b5050565b611e198161245c565b82525050565b611e2881612492565b82525050565b611e37816124b6565b82525050565b6000611e48826123ba565b611e5281856123e3565b9350611e628185602086016124e9565b611e6b81612655565b840191505092915050565b6000611e83602c836123e3565b9150611e8e82612666565b604082019050919050565b6000611ea66018836123e3565b9150611eb1826126b5565b602082019050919050565b6000611ec96028836123e3565b9150611ed4826126de565b604082019050919050565b6000611eec6019836123e3565b9150611ef78261272d565b602082019050919050565b6000611f0f6016836123e3565b9150611f1a82612756565b602082019050919050565b6000611f32602a836123e3565b9150611f3d8261277f565b604082019050919050565b6000611f55601e836123e3565b9150611f60826127ce565b602082019050919050565b6000611f786024836123e3565b9150611f83826127f7565b604082019050919050565b6000611f9b6027836123e3565b9150611fa682612846565b604082019050919050565b6000611fbe6011836123e3565b9150611fc982612895565b602082019050919050565b611fdd81612488565b82525050565b6000602082019050611ff86000830184611d92565b92915050565b60006040820190506120136000830185611d92565b6120206020830184611fd4565b9392505050565b600060208201905081810360008301526120418184611da1565b905092915050565b600060208201905061205e6000830184611e10565b92915050565b60006020820190506120796000830184611e1f565b92915050565b60006040820190506120946000830185611e2e565b6120a16020830184611fd4565b9392505050565b600060408201905081810360008301526120c28185611e3d565b90506120d16020830184611fd4565b9392505050565b600060e08201905081810360008301526120f2818a611e3d565b90506121016020830189611fd4565b61210e6040830188611fd4565b61211b6060830187611fd4565b818103608083015261212d8186611e3d565b905081810360a08301526121418185611e3d565b905081810360c08301526121558184611e3d565b905098975050505050505050565b6000602082019050818103600083015261217c81611e76565b9050919050565b6000602082019050818103600083015261219c81611e99565b9050919050565b600060208201905081810360008301526121bc81611ebc565b9050919050565b600060208201905081810360008301526121dc81611edf565b9050919050565b600060208201905081810360008301526121fc81611f02565b9050919050565b6000602082019050818103600083015261221c81611f25565b9050919050565b6000602082019050818103600083015261223c81611f48565b9050919050565b6000602082019050818103600083015261225c81611f6b565b9050919050565b6000602082019050818103600083015261227c81611f8e565b9050919050565b6000602082019050818103600083015261229c81611fb1565b9050919050565b60006020820190506122b86000830184611fd4565b92915050565b60006040820190506122d36000830185611fd4565b6122e06020830184611fd4565b9392505050565b60006101a0820190506122fd6000830189611fd4565b61230a6020830188611fd4565b6123176040830187611fd4565b6123246060830186611fd4565b6123316080830185611fd4565b61233e60a0830184611dff565b979650505050505050565b6000612353612364565b905061235f828261254e565b919050565b6000604051905090565b600067ffffffffffffffff82111561238957612388612626565b5b61239282612655565b9050602081019050919050565b6000819050602082019050919050565b600081519050919050565b600081519050919050565b6000602082019050919050565b600082825260208201905092915050565b600082825260208201905092915050565b60006123ff82612488565b915061240a83612488565b9250827fffffffffffffffffffffffffffffffffffffffffffffffffffffffffffffffff0382111561243f5761243e6125c8565b5b828201905092915050565b600061245582612468565b9050919050565b60008115159050919050565b600073ffffffffffffffffffffffffffffffffffffffff82169050919050565b6000819050919050565b600061249d826124a4565b9050919050565b60006124af82612468565b9050919050565b60006124c1826124c8565b9050919050565b60006124d382612468565b9050919050565b82818337600083830152505050565b60005b838110156125075780820151818401526020810190506124ec565b83811115612516576000848401525b50505050565b6000600282049050600182168061253457607f821691505b60208210811415612548576125476125f7565b5b50919050565b61255782612655565b810181811067ffffffffffffffff8211171561257657612575612626565b5b80604052505050565b600061258a82612488565b91507fffffffffffffffffffffffffffffffffffffffffffffffffffffffffffffffff8214156125bd576125bc6125c8565b5b600182019050919050565b7f4e487b7100000000000000000000000000000000000000000000000000000000600052601160045260246000fd5b7f4e487b7100000000000000000000000000000000000000000000000000000000600052602260045260246000fd5b7f4e487b7100000000000000000000000000000000000000000000000000000000600052604160045260246000fd5b6000601f19601f8301169050919050565b7f43616e6e6f742064697374726962757465207072697a65206265666f7265206860008201527f61636b6174686f6e20656e640000000000000000000000000000000000000000602082015250565b7f4e6f2062616c616e636520746f20646973747269627574650000000000000000600082015250565b7f43616e6e6f74207061727469636970617465206166746572206861636b61746860008201527f6f6e207374617274000000000000000000000000000000000000000000000000602082015250565b7f5072697a6520616c726561647920646973747269627574656400000000000000600082015250565b7f4e6f207072697a6520746f206469737472696275746500000000000000000000600082015250565b7f43616e6e6f74206465706f736974207072697a65206166746572207375626d6960008201527f7420646561646c696e6500000000000000000000000000000000000000000000602082015250565b7f4f6e6c79206576616c7561746f72732063616e206a6f696e2067726f75700000600082015250565b7f43616e6e6f74206361737420766f7465206166746572206861636b6174686f6e60008201527f20656e6400000000000000000000000000000000000000000000000000000000602082015250565b7f43616e6e6f74206a6f696e2067726f7570206166746572207375626d6974206460008201527f6561646c696e6500000000000000000000000000000000000000000000000000602082015250565b7f43616e6e6f7420766f7465207477696365000000000000000000000000000000600082015250565b6128c78161244a565b81146128d257600080fd5b50565b6128de81612488565b81146128e957600080fd5b5056fea26469706673582212202f9b3efdd5f7841f90b06dc83be14e4c648e47f83d41c2e2f0fdf9184e398f6964736f6c63430008040033a264697066735822122094f0d0a85c6b4d69098275bd43e47cbae24dbb33dbcc522b8da3caec9efd7ec464736f6c6343000804003360806040523480156200001157600080fd5b5060405162003c2b38038062003c2b8339818101604052810190620000379190620002d6565b816200004981620000b360201b60201c565b506200006a6200005e620000cf60201b60201c565b620000d760201b60201c565b80600860006101000a81548173ffffffffffffffffffffffffffffffffffffffff021916908373ffffffffffffffffffffffffffffffffffffffff1602179055505050620004ee565b8060029080519060200190620000cb9291906200019d565b5050565b600033905090565b6000600360009054906101000a900473ffffffffffffffffffffffffffffffffffffffff16905081600360006101000a81548173ffffffffffffffffffffffffffffffffffffffff021916908373ffffffffffffffffffffffffffffffffffffffff1602179055508173ffffffffffffffffffffffffffffffffffffffff168173ffffffffffffffffffffffffffffffffffffffff167f8be0079c531659141344cd1fd0a4f28419497f9722a3daafe3b4186f6b6457e060405160405180910390a35050565b828054620001ab90620003f9565b90600052602060002090601f016020900481019282620001cf57600085556200021b565b82601f10620001ea57805160ff19168380011785556200021b565b828001600101855582156200021b579182015b828111156200021a578251825591602001919060010190620001fd565b5b5090506200022a91906200022e565b5090565b5b80821115620002495760008160009055506001016200022f565b5090565b6000620002646200025e8462000359565b62000330565b9050828152602081018484840111156200027d57600080fd5b6200028a848285620003c3565b509392505050565b600081519050620002a381620004d4565b92915050565b600082601f830112620002bb57600080fd5b8151620002cd8482602086016200024d565b91505092915050565b60008060408385031215620002ea57600080fd5b600083015167ffffffffffffffff8111156200030557600080fd5b6200031385828601620002a9565b9250506020620003268582860162000292565b9150509250929050565b60006200033c6200034f565b90506200034a82826200042f565b919050565b6000604051905090565b600067ffffffffffffffff82111562000377576200037662000494565b5b6200038282620004c3565b9050602081019050919050565b60006200039c82620003a3565b9050919050565b600073ffffffffffffffffffffffffffffffffffffffff82169050919050565b60005b83811015620003e3578082015181840152602081019050620003c6565b83811115620003f3576000848401525b50505050565b600060028204905060018216806200041257607f821691505b6020821081141562000429576200042862000465565b5b50919050565b6200043a82620004c3565b810181811067ffffffffffffffff821117156200045c576200045b62000494565b5b80604052505050565b7f4e487b7100000000000000000000000000000000000000000000000000000000600052602260045260246000fd5b7f4e487b7100000000000000000000000000000000000000000000000000000000600052604160045260246000fd5b6000601f19601f8301169050919050565b620004df816200038f565b8114620004eb57600080fd5b50565b61372d80620004fe6000396000f3fe608060405234801561001057600080fd5b50600436106101415760003560e01c8063715018a6116100b8578063e985e9c51161007c578063e985e9c514610396578063ec4278eb146103c6578063eced5276146103e4578063f242432a14610414578063f2fde38b14610430578063f72d89581461044c57610141565b8063715018a6146102f25780638da5cb5b146102fc578063a22cb4651461031a578063d004b03614610336578063d81ed0761461036657610141565b8063249442b71161010a578063249442b71461020e5780632eb2c2d61461023e5780634e1273f41461025a578063533ede8a1461028a57806361ec30c4146102a65780636ad5232b146102d657610141565b8062fdd58e1461014657806301ffc9a71461017657806302fe5305146101a65780630e89341c146101c257806320694db0146101f2575b600080fd5b610160600480360381019061015b91906124b4565b61047c565b60405161016d9190612da5565b60405180910390f35b610190600480360381019061018b919061255c565b610545565b60405161019d9190612b88565b60405180910390f35b6101c060048036038101906101bb91906125ae565b610627565b005b6101dc60048036038101906101d791906125ef565b61063b565b6040516101e99190612ba3565b60405180910390f35b61020c600480360381019061020791906122c5565b6106cf565b005b610228600480360381019061022391906124b4565b6107c5565b6040516102359190612da5565b60405180910390f35b6102586004803603810190610253919061232a565b6107f6565b005b610274600480360381019061026f91906124f0565b610897565b6040516102819190612b2f565b60405180910390f35b6102a4600480360381019061029f91906124b4565b610a48565b005b6102c060048036038101906102bb91906125ef565b610bf1565b6040516102cd9190612a30565b60405180910390f35b6102f060048036038101906102eb91906124b4565b610c30565b005b6102fa610de5565b005b610304610df9565b6040516103119190612a30565b60405180910390f35b610334600480360381019061032f9190612478565b610e23565b005b610350600480360381019061034b91906122c5565b610e39565b60405161035d9190612b0d565b60405180910390f35b610380600480360381019061037b91906125ef565b610f89565b60405161038d9190612ba3565b60405180910390f35b6103b060048036038101906103ab91906122ee565b611029565b6040516103bd9190612b88565b60405180910390f35b6103ce6110bd565b6040516103db9190612a30565b60405180910390f35b6103fe60048036038101906103f991906124b4565b6110e3565b60405161040b9190612da5565b60405180910390f35b61042e600480360381019061042991906123e9565b611114565b005b61044a600480360381019061044591906122c5565b61114f565b005b610466600480360381019061046191906125ef565b6111d3565b6040516104739190612ba3565b60405180910390f35b60008073ffffffffffffffffffffffffffffffffffffffff168373ffffffffffffffffffffffffffffffffffffffff1614156104ed576040517f08c379a00000000000000000000000000000000000000000000000000000000081526004016104e490612c45565b60405180910390fd5b60008083815260200190815260200160002060008473ffffffffffffffffffffffffffffffffffffffff1673ffffffffffffffffffffffffffffffffffffffff16815260200190815260200160002054905092915050565b60007fd9b67a26000000000000000000000000000000000000000000000000000000007bffffffffffffffffffffffffffffffffffffffffffffffffffffffff1916827bffffffffffffffffffffffffffffffffffffffffffffffffffffffff1916148061061057507f0e89341c000000000000000000000000000000000000000000000000000000007bffffffffffffffffffffffffffffffffffffffffffffffffffffffff1916827bffffffffffffffffffffffffffffffffffffffffffffffffffffffff1916145b80610620575061061f82611273565b5b9050919050565b61062f6112dd565b6106388161135b565b50565b60606002805461064a90613083565b80601f016020809104026020016040519081016040528092919081815260200182805461067690613083565b80156106c35780601f10610698576101008083540402835291602001916106c3565b820191906000526020600020905b8154815290600101906020018083116106a657829003601f168201915b50505050509050919050565b600860009054906101000a900473ffffffffffffffffffffffffffffffffffffffff1673ffffffffffffffffffffffffffffffffffffffff163373ffffffffffffffffffffffffffffffffffffffff161461075f576040517f08c379a000000000000000000000000000000000000000000000000000000000815260040161075690612c85565b60405180910390fd5b6009819080600181540180825580915050600190039060005260206000200160009091909190916101000a81548173ffffffffffffffffffffffffffffffffffffffff021916908373ffffffffffffffffffffffffffffffffffffffff16021790555050565b600660205281600052604060002081815481106107e157600080fd5b90600052602060002001600091509150505481565b6107fe611375565b73ffffffffffffffffffffffffffffffffffffffff168573ffffffffffffffffffffffffffffffffffffffff16148061084457506108438561083e611375565b611029565b5b610883576040517f08c379a000000000000000000000000000000000000000000000000000000000815260040161087a90612be5565b60405180910390fd5b610890858585858561137d565b5050505050565b606081518351146108dd576040517f08c379a00000000000000000000000000000000000000000000000000000000081526004016108d490612d45565b60405180910390fd5b6000835167ffffffffffffffff811115610920577f4e487b7100000000000000000000000000000000000000000000000000000000600052604160045260246000fd5b60405190808252806020026020018201604052801561094e5781602001602082028036833780820191505090505b50905060005b8451811015610a3d576109e7858281518110610999577f4e487b7100000000000000000000000000000000000000000000000000000000600052603260045260246000fd5b60200260200101518583815181106109da577f4e487b7100000000000000000000000000000000000000000000000000000000600052603260045260246000fd5b602002602001015161047c565b828281518110610a20577f4e487b7100000000000000000000000000000000000000000000000000000000600052603260045260246000fd5b60200260200101818152505080610a36906130e6565b9050610954565b508091505092915050565b600080600980549050905060005b81811015610b0e573373ffffffffffffffffffffffffffffffffffffffff1660098281548110610aaf577f4e487b7100000000000000000000000000000000000000000000000000000000600052603260045260246000fd5b9060005260206000200160009054906101000a900473ffffffffffffffffffffffffffffffffffffffff1673ffffffffffffffffffffffffffffffffffffffff161415610afb57600192505b8080610b06906130e6565b915050610a56565b5081610b4f576040517f08c379a0000000000000000000000000000000000000000000000000000000008152600401610b4690612d05565b60405180910390fd5b60008390506005600082815260200190815260200160002050600760008673ffffffffffffffffffffffffffffffffffffffff1673ffffffffffffffffffffffffffffffffffffffff168152602001908152602001600020819080600181540180825580915050600190039060005260206000200160009091909190915055610bea85826001604051806020016040528060008152506116eb565b5050505050565b60098181548110610c0157600080fd5b906000526020600020016000915054906101000a900473ffffffffffffffffffffffffffffffffffffffff1681565b600080600980549050905060005b81811015610cf6573373ffffffffffffffffffffffffffffffffffffffff1660098281548110610c97577f4e487b7100000000000000000000000000000000000000000000000000000000600052603260045260246000fd5b9060005260206000200160009054906101000a900473ffffffffffffffffffffffffffffffffffffffff1673ffffffffffffffffffffffffffffffffffffffff161415610ce357600192505b8080610cee906130e6565b915050610c3e565b5081610d37576040517f08c379a0000000000000000000000000000000000000000000000000000000008152600401610d2e90612d05565b60405180910390fd5b6000600184610d469190612f77565b90506004600082815260200190815260200160002050600660008673ffffffffffffffffffffffffffffffffffffffff1673ffffffffffffffffffffffffffffffffffffffff168152602001908152602001600020819080600181540180825580915050600190039060005260206000200160009091909190915055610dde85826001604051806020016040528060008152506116eb565b5050505050565b610ded6112dd565b610df7600061189c565b565b6000600360009054906101000a900473ffffffffffffffffffffffffffffffffffffffff16905090565b610e35610e2e611375565b8383611962565b5050565b610e41611f96565b6000600660008473ffffffffffffffffffffffffffffffffffffffff1673ffffffffffffffffffffffffffffffffffffffff168152602001908152602001600020805480602002602001604051908101604052809291908181526020018280548015610ecc57602002820191906000526020600020905b815481526020019060010190808311610eb8575b505050505090506000600760008573ffffffffffffffffffffffffffffffffffffffff1673ffffffffffffffffffffffffffffffffffffffff168152602001908152602001600020805480602002602001604051908101604052809291908181526020018280548015610f5e57602002820191906000526020600020905b815481526020019060010190808311610f4a575b5050505050905060006040518060400160405280848152602001838152509050809350505050919050565b60046020528060005260406000206000915090508054610fa890613083565b80601f0160208091040260200160405190810160405280929190818152602001828054610fd490613083565b80156110215780601f10610ff657610100808354040283529160200191611021565b820191906000526020600020905b81548152906001019060200180831161100457829003601f168201915b505050505081565b6000600160008473ffffffffffffffffffffffffffffffffffffffff1673ffffffffffffffffffffffffffffffffffffffff16815260200190815260200160002060008373ffffffffffffffffffffffffffffffffffffffff1673ffffffffffffffffffffffffffffffffffffffff16815260200190815260200160002060009054906101000a900460ff16905092915050565b600860009054906101000a900473ffffffffffffffffffffffffffffffffffffffff1681565b600760205281600052604060002081815481106110ff57600080fd5b90600052602060002001600091509150505481565b6040517f08c379a000000000000000000000000000000000000000000000000000000000815260040161114690612cc5565b60405180910390fd5b6111576112dd565b600073ffffffffffffffffffffffffffffffffffffffff168173ffffffffffffffffffffffffffffffffffffffff1614156111c7576040517f08c379a00000000000000000000000000000000000000000000000000000000081526004016111be90612c25565b60405180910390fd5b6111d08161189c565b50565b600560205280600052604060002060009150905080546111f290613083565b80601f016020809104026020016040519081016040528092919081815260200182805461121e90613083565b801561126b5780601f106112405761010080835404028352916020019161126b565b820191906000526020600020905b81548152906001019060200180831161124e57829003601f168201915b505050505081565b60007f01ffc9a7000000000000000000000000000000000000000000000000000000007bffffffffffffffffffffffffffffffffffffffffffffffffffffffff1916827bffffffffffffffffffffffffffffffffffffffffffffffffffffffff1916149050919050565b6112e5611375565b73ffffffffffffffffffffffffffffffffffffffff16611303610df9565b73ffffffffffffffffffffffffffffffffffffffff1614611359576040517f08c379a000000000000000000000000000000000000000000000000000000000815260040161135090612ce5565b60405180910390fd5b565b8060029080519060200190611371929190611fbd565b5050565b600033905090565b81518351146113c1576040517f08c379a00000000000000000000000000000000000000000000000000000000081526004016113b890612d65565b60405180910390fd5b600073ffffffffffffffffffffffffffffffffffffffff168473ffffffffffffffffffffffffffffffffffffffff161415611431576040517f08c379a000000000000000000000000000000000000000000000000000000000815260040161142890612c65565b60405180910390fd5b600061143b611375565b905061144b818787878787611acf565b60005b8451811015611648576000858281518110611492577f4e487b7100000000000000000000000000000000000000000000000000000000600052603260045260246000fd5b6020026020010151905060008583815181106114d7577f4e487b7100000000000000000000000000000000000000000000000000000000600052603260045260246000fd5b60200260200101519050600080600084815260200190815260200160002060008b73ffffffffffffffffffffffffffffffffffffffff1673ffffffffffffffffffffffffffffffffffffffff16815260200190815260200160002054905081811015611578576040517f08c379a000000000000000000000000000000000000000000000000000000000815260040161156f90612ca5565b60405180910390fd5b81810360008085815260200190815260200160002060008c73ffffffffffffffffffffffffffffffffffffffff1673ffffffffffffffffffffffffffffffffffffffff168152602001908152602001600020819055508160008085815260200190815260200160002060008b73ffffffffffffffffffffffffffffffffffffffff1673ffffffffffffffffffffffffffffffffffffffff168152602001908152602001600020600082825461162d9190612f77565b9250508190555050505080611641906130e6565b905061144e565b508473ffffffffffffffffffffffffffffffffffffffff168673ffffffffffffffffffffffffffffffffffffffff168273ffffffffffffffffffffffffffffffffffffffff167f4a39dc06d4c0dbc64b70af90fd698a233a518aa5d07e595d983b8c0526c8f7fb87876040516116bf929190612b51565b60405180910390a46116d5818787878787611ad7565b6116e3818787878787611adf565b505050505050565b600073ffffffffffffffffffffffffffffffffffffffff168473ffffffffffffffffffffffffffffffffffffffff16141561175b576040517f08c379a000000000000000000000000000000000000000000000000000000000815260040161175290612d85565b60405180910390fd5b6000611765611375565b9050600061177285611cc6565b9050600061177f85611cc6565b905061179083600089858589611acf565b8460008088815260200190815260200160002060008973ffffffffffffffffffffffffffffffffffffffff1673ffffffffffffffffffffffffffffffffffffffff16815260200190815260200160002060008282546117ef9190612f77565b925050819055508673ffffffffffffffffffffffffffffffffffffffff16600073ffffffffffffffffffffffffffffffffffffffff168473ffffffffffffffffffffffffffffffffffffffff167fc3d58168c5ae7397731d063d5bbf3d657854427343f4c083240f7aacaa2d0f62898960405161186d929190612dc0565b60405180910390a461188483600089858589611ad7565b61189383600089898989611d8c565b50505050505050565b6000600360009054906101000a900473ffffffffffffffffffffffffffffffffffffffff16905081600360006101000a81548173ffffffffffffffffffffffffffffffffffffffff021916908373ffffffffffffffffffffffffffffffffffffffff1602179055508173ffffffffffffffffffffffffffffffffffffffff168173ffffffffffffffffffffffffffffffffffffffff167f8be0079c531659141344cd1fd0a4f28419497f9722a3daafe3b4186f6b6457e060405160405180910390a35050565b8173ffffffffffffffffffffffffffffffffffffffff168373ffffffffffffffffffffffffffffffffffffffff1614156119d1576040517f08c379a00000000000000000000000000000000000000000000000000000000081526004016119c890612d25565b60405180910390fd5b80600160008573ffffffffffffffffffffffffffffffffffffffff1673ffffffffffffffffffffffffffffffffffffffff16815260200190815260200160002060008473ffffffffffffffffffffffffffffffffffffffff1673ffffffffffffffffffffffffffffffffffffffff16815260200190815260200160002060006101000a81548160ff0219169083151502179055508173ffffffffffffffffffffffffffffffffffffffff168373ffffffffffffffffffffffffffffffffffffffff167f17307eab39ab6107e8899845ad3d59bd9653f200f220920489ca2b5937696c3183604051611ac29190612b88565b60405180910390a3505050565b505050505050565b505050505050565b611afe8473ffffffffffffffffffffffffffffffffffffffff16611f73565b15611cbe578373ffffffffffffffffffffffffffffffffffffffff1663bc197c8187878686866040518663ffffffff1660e01b8152600401611b44959493929190612a4b565b602060405180830381600087803b158015611b5e57600080fd5b505af1925050508015611b8f57506040513d601f19601f82011682018060405250810190611b8c9190612585565b60015b611c3557611b9b6131bc565b806308c379a01415611bf85750611bb0613605565b80611bbb5750611bfa565b806040517f08c379a0000000000000000000000000000000000000000000000000000000008152600401611bef9190612ba3565b60405180910390fd5b505b6040517f08c379a0000000000000000000000000000000000000000000000000000000008152600401611c2c90612bc5565b60405180910390fd5b63bc197c8160e01b7bffffffffffffffffffffffffffffffffffffffffffffffffffffffff1916817bffffffffffffffffffffffffffffffffffffffffffffffffffffffff191614611cbc576040517f08c379a0000000000000000000000000000000000000000000000000000000008152600401611cb390612c05565b60405180910390fd5b505b505050505050565b60606000600167ffffffffffffffff811115611d0b577f4e487b7100000000000000000000000000000000000000000000000000000000600052604160045260246000fd5b604051908082528060200260200182016040528015611d395781602001602082028036833780820191505090505b5090508281600081518110611d77577f4e487b7100000000000000000000000000000000000000000000000000000000600052603260045260246000fd5b60200260200101818152505080915050919050565b611dab8473ffffffffffffffffffffffffffffffffffffffff16611f73565b15611f6b578373ffffffffffffffffffffffffffffffffffffffff1663f23a6e6187878686866040518663ffffffff1660e01b8152600401611df1959493929190612ab3565b602060405180830381600087803b158015611e0b57600080fd5b505af1925050508015611e3c57506040513d601f19601f82011682018060405250810190611e399190612585565b60015b611ee257611e486131bc565b806308c379a01415611ea55750611e5d613605565b80611e685750611ea7565b806040517f08c379a0000000000000000000000000000000000000000000000000000000008152600401611e9c9190612ba3565b60405180910390fd5b505b6040517f08c379a0000000000000000000000000000000000000000000000000000000008152600401611ed990612bc5565b60405180910390fd5b63f23a6e6160e01b7bffffffffffffffffffffffffffffffffffffffffffffffffffffffff1916817bffffffffffffffffffffffffffffffffffffffffffffffffffffffff191614611f69576040517f08c379a0000000000000000000000000000000000000000000000000000000008152600401611f6090612c05565b60405180910390fd5b505b505050505050565b6000808273ffffffffffffffffffffffffffffffffffffffff163b119050919050565b60405180604001604052806002905b6060815260200190600190039081611fa55790505090565b828054611fc990613083565b90600052602060002090601f016020900481019282611feb5760008555612032565b82601f1061200457805160ff1916838001178555612032565b82800160010185558215612032579182015b82811115612031578251825591602001919060010190612016565b5b50905061203f9190612043565b5090565b5b8082111561205c576000816000905550600101612044565b5090565b600061207361206e84612e0e565b612de9565b9050808382526020820190508285602086028201111561209257600080fd5b60005b858110156120c257816120a888826121b4565b845260208401935060208301925050600181019050612095565b5050509392505050565b60006120df6120da84612e3a565b612de9565b905080838252602082019050828560208602820111156120fe57600080fd5b60005b8581101561212e578161211488826122b0565b845260208401935060208301925050600181019050612101565b5050509392505050565b600061214b61214684612e66565b612de9565b90508281526020810184848401111561216357600080fd5b61216e848285613041565b509392505050565b600061218961218484612e97565b612de9565b9050828152602081018484840111156121a157600080fd5b6121ac848285613041565b509392505050565b6000813590506121c38161369b565b92915050565b600082601f8301126121da57600080fd5b81356121ea848260208601612060565b91505092915050565b600082601f83011261220457600080fd5b81356122148482602086016120cc565b91505092915050565b60008135905061222c816136b2565b92915050565b600081359050612241816136c9565b92915050565b600081519050612256816136c9565b92915050565b600082601f83011261226d57600080fd5b813561227d848260208601612138565b91505092915050565b600082601f83011261229757600080fd5b81356122a7848260208601612176565b91505092915050565b6000813590506122bf816136e0565b92915050565b6000602082840312156122d757600080fd5b60006122e5848285016121b4565b91505092915050565b6000806040838503121561230157600080fd5b600061230f858286016121b4565b9250506020612320858286016121b4565b9150509250929050565b600080600080600060a0868803121561234257600080fd5b6000612350888289016121b4565b9550506020612361888289016121b4565b945050604086013567ffffffffffffffff81111561237e57600080fd5b61238a888289016121f3565b935050606086013567ffffffffffffffff8111156123a757600080fd5b6123b3888289016121f3565b925050608086013567ffffffffffffffff8111156123d057600080fd5b6123dc8882890161225c565b9150509295509295909350565b600080600080600060a0868803121561240157600080fd5b600061240f888289016121b4565b9550506020612420888289016121b4565b9450506040612431888289016122b0565b9350506060612442888289016122b0565b925050608086013567ffffffffffffffff81111561245f57600080fd5b61246b8882890161225c565b9150509295509295909350565b6000806040838503121561248b57600080fd5b6000612499858286016121b4565b92505060206124aa8582860161221d565b9150509250929050565b600080604083850312156124c757600080fd5b60006124d5858286016121b4565b92505060206124e6858286016122b0565b9150509250929050565b6000806040838503121561250357600080fd5b600083013567ffffffffffffffff81111561251d57600080fd5b612529858286016121c9565b925050602083013567ffffffffffffffff81111561254657600080fd5b612552858286016121f3565b9150509250929050565b60006020828403121561256e57600080fd5b600061257c84828501612232565b91505092915050565b60006020828403121561259757600080fd5b60006125a584828501612247565b91505092915050565b6000602082840312156125c057600080fd5b600082013567ffffffffffffffff8111156125da57600080fd5b6125e684828501612286565b91505092915050565b60006020828403121561260157600080fd5b600061260f848285016122b0565b91505092915050565b600061262483836126c8565b905092915050565b60006126388383612a12565b60208301905092915050565b61264d81612fcd565b82525050565b600061265e82612ee2565b6126688185612f28565b93508360208202850161267a85612ec8565b8060005b858110156126b657848403895281516126978582612618565b94506126a283612f0e565b925060208a0199505060018101905061267e565b50829750879550505050505092915050565b60006126d382612eed565b6126dd8185612f33565b93506126e883612ed2565b8060005b83811015612719578151612700888261262c565b975061270b83612f1b565b9250506001810190506126ec565b5085935050505092915050565b600061273182612eed565b61273b8185612f44565b935061274683612ed2565b8060005b8381101561277757815161275e888261262c565b975061276983612f1b565b92505060018101905061274a565b5085935050505092915050565b61278d81612fdf565b82525050565b600061279e82612ef8565b6127a88185612f55565b93506127b8818560208601613050565b6127c1816131de565b840191505092915050565b60006127d782612f03565b6127e18185612f66565b93506127f1818560208601613050565b6127fa816131de565b840191505092915050565b6000612812603483612f66565b915061281d826131fc565b604082019050919050565b6000612835602f83612f66565b91506128408261324b565b604082019050919050565b6000612858602883612f66565b91506128638261329a565b604082019050919050565b600061287b602683612f66565b9150612886826132e9565b604082019050919050565b600061289e602a83612f66565b91506128a982613338565b604082019050919050565b60006128c1602583612f66565b91506128cc82613387565b604082019050919050565b60006128e4601683612f66565b91506128ef826133d6565b602082019050919050565b6000612907602a83612f66565b9150612912826133ff565b604082019050919050565b600061292a600d83612f66565b91506129358261344e565b602082019050919050565b600061294d602083612f66565b915061295882613477565b602082019050919050565b6000612970600c83612f66565b915061297b826134a0565b602082019050919050565b6000612993602983612f66565b915061299e826134c9565b604082019050919050565b60006129b6602983612f66565b91506129c182613518565b604082019050919050565b60006129d9602883612f66565b91506129e482613567565b604082019050919050565b60006129fc602183612f66565b9150612a07826135b6565b604082019050919050565b612a1b81613037565b82525050565b612a2a81613037565b82525050565b6000602082019050612a456000830184612644565b92915050565b600060a082019050612a606000830188612644565b612a6d6020830187612644565b8181036040830152612a7f8186612726565b90508181036060830152612a938185612726565b90508181036080830152612aa78184612793565b90509695505050505050565b600060a082019050612ac86000830188612644565b612ad56020830187612644565b612ae26040830186612a21565b612aef6060830185612a21565b8181036080830152612b018184612793565b90509695505050505050565b60006020820190508181036000830152612b278184612653565b905092915050565b60006020820190508181036000830152612b498184612726565b905092915050565b60006040820190508181036000830152612b6b8185612726565b90508181036020830152612b7f8184612726565b90509392505050565b6000602082019050612b9d6000830184612784565b92915050565b60006020820190508181036000830152612bbd81846127cc565b905092915050565b60006020820190508181036000830152612bde81612805565b9050919050565b60006020820190508181036000830152612bfe81612828565b9050919050565b60006020820190508181036000830152612c1e8161284b565b9050919050565b60006020820190508181036000830152612c3e8161286e565b9050919050565b60006020820190508181036000830152612c5e81612891565b9050919050565b60006020820190508181036000830152612c7e816128b4565b9050919050565b60006020820190508181036000830152612c9e816128d7565b9050919050565b60006020820190508181036000830152612cbe816128fa565b9050919050565b60006020820190508181036000830152612cde8161291d565b9050919050565b60006020820190508181036000830152612cfe81612940565b9050919050565b60006020820190508181036000830152612d1e81612963565b9050919050565b60006020820190508181036000830152612d3e81612986565b9050919050565b60006020820190508181036000830152612d5e816129a9565b9050919050565b60006020820190508181036000830152612d7e816129cc565b9050919050565b60006020820190508181036000830152612d9e816129ef565b9050919050565b6000602082019050612dba6000830184612a21565b92915050565b6000604082019050612dd56000830185612a21565b612de26020830184612a21565b9392505050565b6000612df3612e04565b9050612dff82826130b5565b919050565b6000604051905090565b600067ffffffffffffffff821115612e2957612e2861318d565b5b602082029050602081019050919050565b600067ffffffffffffffff821115612e5557612e5461318d565b5b602082029050602081019050919050565b600067ffffffffffffffff821115612e8157612e8061318d565b5b612e8a826131de565b9050602081019050919050565b600067ffffffffffffffff821115612eb257612eb161318d565b5b612ebb826131de565b9050602081019050919050565b6000819050919050565b6000819050602082019050919050565b600060029050919050565b600081519050919050565b600081519050919050565b600081519050919050565b6000602082019050919050565b6000602082019050919050565b600081905092915050565b600082825260208201905092915050565b600082825260208201905092915050565b600082825260208201905092915050565b600082825260208201905092915050565b6000612f8282613037565b9150612f8d83613037565b9250827fffffffffffffffffffffffffffffffffffffffffffffffffffffffffffffffff03821115612fc257612fc161312f565b5b828201905092915050565b6000612fd882613017565b9050919050565b60008115159050919050565b60007fffffffff0000000000000000000000000000000000000000000000000000000082169050919050565b600073ffffffffffffffffffffffffffffffffffffffff82169050919050565b6000819050919050565b82818337600083830152505050565b60005b8381101561306e578082015181840152602081019050613053565b8381111561307d576000848401525b50505050565b6000600282049050600182168061309b57607f821691505b602082108114156130af576130ae61315e565b5b50919050565b6130be826131de565b810181811067ffffffffffffffff821117156130dd576130dc61318d565b5b80604052505050565b60006130f182613037565b91507fffffffffffffffffffffffffffffffffffffffffffffffffffffffffffffffff8214156131245761312361312f565b5b600182019050919050565b7f4e487b7100000000000000000000000000000000000000000000000000000000600052601160045260246000fd5b7f4e487b7100000000000000000000000000000000000000000000000000000000600052602260045260246000fd5b7f4e487b7100000000000000000000000000000000000000000000000000000000600052604160045260246000fd5b600060033d11156131db5760046000803e6131d86000516131ef565b90505b90565b6000601f19601f8301169050919050565b60008160e01c9050919050565b7f455243313135353a207472616e7366657220746f206e6f6e204552433131353560008201527f526563656976657220696d706c656d656e746572000000000000000000000000602082015250565b7f455243313135353a2063616c6c6572206973206e6f7420746f6b656e206f776e60008201527f6572206e6f7220617070726f7665640000000000000000000000000000000000602082015250565b7f455243313135353a204552433131353552656365697665722072656a6563746560008201527f6420746f6b656e73000000000000000000000000000000000000000000000000602082015250565b7f4f776e61626c653a206e6577206f776e657220697320746865207a65726f206160008201527f6464726573730000000000000000000000000000000000000000000000000000602082015250565b7f455243313135353a2061646472657373207a65726f206973206e6f742061207660008201527f616c6964206f776e657200000000000000000000000000000000000000000000602082015250565b7f455243313135353a207472616e7366657220746f20746865207a65726f20616460008201527f6472657373000000000000000000000000000000000000000000000000000000602082015250565b7f6f6e6c79206861636b6174686f6e20666163746f727900000000000000000000600082015250565b7f455243313135353a20696e73756666696369656e742062616c616e636520666f60008201527f72207472616e7366657200000000000000000000000000000000000000000000602082015250565b7f6e6f7420737570706f7274656400000000000000000000000000000000000000600082015250565b7f4f776e61626c653a2063616c6c6572206973206e6f7420746865206f776e6572600082015250565b7f6f6e6c7920697373756572730000000000000000000000000000000000000000600082015250565b7f455243313135353a2073657474696e6720617070726f76616c2073746174757360008201527f20666f722073656c660000000000000000000000000000000000000000000000602082015250565b7f455243313135353a206163636f756e747320616e6420696473206c656e67746860008201527f206d69736d617463680000000000000000000000000000000000000000000000602082015250565b7f455243313135353a2069647320616e6420616d6f756e7473206c656e6774682060008201527f6d69736d61746368000000000000000000000000000000000000000000000000602082015250565b7f455243313135353a206d696e7420746f20746865207a65726f2061646472657360008201527f7300000000000000000000000000000000000000000000000000000000000000602082015250565b600060443d101561361557613698565b61361d612e04565b60043d036004823e80513d602482011167ffffffffffffffff82111715613645575050613698565b808201805167ffffffffffffffff8111156136635750505050613698565b80602083010160043d038501811115613680575050505050613698565b61368f826020018501866130b5565b82955050505050505b90565b6136a481612fcd565b81146136af57600080fd5b50565b6136bb81612fdf565b81146136c657600080fd5b50565b6136d281612feb565b81146136dd57600080fd5b50565b6136e981613037565b81146136f457600080fd5b5056fea2646970667358221220da120ba5663e608ee94972983832958cc02d44d6d27d9fa55f66ab2939fd0ddb64736f6c63430008040033",
  "linkReferences": {},
  "deployedLinkReferences": {}
}