{
  "_format": "hh-sol-artifact-1",
  "contractName": "Hackathon",
  "sourceName": "contracts/Hackathon.sol",
  "abi": [
    {
      "inputs": [
        {
          "internalType": "address",
          "name": "semaphoreAddress",
          "type": "address"
        },
        {
          "internalType": "address",
          "name": "certificateAddress",
          "type": "address"
        },
        {
          "internalType": "string",
          "name": "_name",
          "type": "string"
        },
        {
          "internalType": "uint256",
          "name": "_start",
          "type": "uint256"
        },
        {
          "internalType": "uint256",
          "name": "_submit_deadline",
          "type": "uint256"
        },
        {
          "internalType": "uint256",
          "name": "_end",
          "type": "uint256"
        },
        {
          "internalType": "string",
          "name": "_website",
          "type": "string"
        },
        {
          "internalType": "string",
          "name": "_telegram",
          "type": "string"
        },
        {
          "internalType": "string",
          "name": "_twitter",
          "type": "string"
        },
        {
          "internalType": "address[]",
          "name": "_evaluators",
          "type": "address[]"
        }
      ],
      "stateMutability": "nonpayable",
      "type": "constructor"
    },
    {
      "inputs": [
        {
          "internalType": "uint256",
          "name": "identityCommitment",
          "type": "uint256"
        }
      ],
      "name": "addVoter",
      "outputs": [],
      "stateMutability": "nonpayable",
      "type": "function"
    },
    {
      "inputs": [
        {
          "internalType": "uint256",
          "name": "voted",
          "type": "uint256"
        },
        {
          "internalType": "uint256",
          "name": "merkleTreeRoot",
          "type": "uint256"
        },
        {
          "internalType": "uint256",
          "name": "nullifierHash",
          "type": "uint256"
        },
        {
          "internalType": "uint256[8]",
          "name": "proof",
          "type": "uint256[8]"
        }
      ],
      "name": "castVote",
      "outputs": [],
      "stateMutability": "nonpayable",
      "type": "function"
    },
    {
      "inputs": [],
      "name": "certificate",
      "outputs": [
        {
          "internalType": "contract Certificate",
          "name": "",
          "type": "address"
        }
      ],
      "stateMutability": "view",
      "type": "function"
    },
    {
      "inputs": [
        {
          "internalType": "string",
          "name": "prizeName",
          "type": "string"
        }
      ],
      "name": "depositEthPrize",
      "outputs": [],
      "stateMutability": "payable",
      "type": "function"
    },
    {
      "inputs": [],
      "name": "distributePrize",
      "outputs": [],
      "stateMutability": "nonpayable",
      "type": "function"
    },
    {
      "inputs": [],
      "name": "getParticipants",
      "outputs": [
        {
          "internalType": "address[]",
          "name": "",
          "type": "address[]"
        }
      ],
      "stateMutability": "view",
      "type": "function"
    },
    {
      "inputs": [],
      "name": "getTotalPrize",
      "outputs": [
        {
          "internalType": "uint256",
          "name": "",
          "type": "uint256"
        }
      ],
      "stateMutability": "view",
      "type": "function"
    },
    {
      "inputs": [],
      "name": "hackathon",
      "outputs": [
        {
          "internalType": "string",
          "name": "name",
          "type": "string"
        },
        {
          "internalType": "uint256",
          "name": "start",
          "type": "uint256"
        },
        {
          "internalType": "uint256",
          "name": "submit_deadline",
          "type": "uint256"
        },
        {
          "internalType": "uint256",
          "name": "end",
          "type": "uint256"
        },
        {
          "internalType": "string",
          "name": "website",
          "type": "string"
        },
        {
          "internalType": "string",
          "name": "telegram",
          "type": "string"
        },
        {
          "internalType": "string",
          "name": "twitter",
          "type": "string"
        }
      ],
      "stateMutability": "view",
      "type": "function"
    },
    {
      "inputs": [],
      "name": "isPrizeDistributed",
      "outputs": [
        {
          "internalType": "bool",
          "name": "",
          "type": "bool"
        }
      ],
      "stateMutability": "view",
      "type": "function"
    },
    {
      "inputs": [
        {
          "internalType": "uint256",
          "name": "",
          "type": "uint256"
        }
      ],
      "name": "participants",
      "outputs": [
        {
          "internalType": "address",
          "name": "",
          "type": "address"
        }
      ],
      "stateMutability": "view",
      "type": "function"
    },
    {
      "inputs": [],
      "name": "participate",
      "outputs": [],
      "stateMutability": "nonpayable",
      "type": "function"
    },
    {
      "inputs": [
        {
          "internalType": "uint256",
          "name": "",
          "type": "uint256"
        }
      ],
      "name": "prizes",
      "outputs": [
        {
          "internalType": "string",
          "name": "name",
          "type": "string"
        },
        {
          "internalType": "uint256",
          "name": "balance",
          "type": "uint256"
        }
      ],
      "stateMutability": "view",
      "type": "function"
    },
    {
      "inputs": [],
      "name": "semaphoreConfig",
      "outputs": [
        {
          "internalType": "contract ISemaphore",
          "name": "semaphore",
          "type": "address"
        },
        {
          "internalType": "uint256",
          "name": "groupId",
          "type": "uint256"
        }
      ],
      "stateMutability": "view",
      "type": "function"
    },
    {
      "inputs": [
        {
          "internalType": "address",
          "name": "",
          "type": "address"
        }
      ],
      "name": "votes",
      "outputs": [
        {
          "internalType": "uint256",
          "name": "",
          "type": "uint256"
        }
      ],
      "stateMutability": "view",
      "type": "function"
    }
  ],
  "bytecode": "0x60806040523480156200001157600080fd5b5060405162003361380380620033618339818101604052810190620000379190620004fe565b8642106200007c576040517f08c379a0000000000000000000000000000000000000000000000000000000008152600401620000739062000702565b60405180910390fd5b858710620000c1576040517f08c379a0000000000000000000000000000000000000000000000000000000008152600401620000b890620006e0565b60405180910390fd5b84861062000106576040517f08c379a0000000000000000000000000000000000000000000000000000000008152600401620000fd9062000724565b60405180910390fd5b89600160000160006101000a81548173ffffffffffffffffffffffffffffffffffffffff021916908373ffffffffffffffffffffffffffffffffffffffff1602179055503073ffffffffffffffffffffffffffffffffffffffff166001800181905550886000806101000a81548173ffffffffffffffffffffffffffffffffffffffff021916908373ffffffffffffffffffffffffffffffffffffffff1602179055508760036000019080519060200190620001c49291906200027d565b5086600360010181905550856003600201819055508460038001819055508360036004019080519060200190620001fd9291906200027d565b508260036005019080519060200190620002199291906200027d565b508160036006019080519060200190620002359291906200027d565b508060036007019080519060200190620002519291906200030e565b506000600c60006101000a81548160ff0219169083151502179055505050505050505050505062000a2f565b8280546200028b9062000859565b90600052602060002090601f016020900481019282620002af5760008555620002fb565b82601f10620002ca57805160ff1916838001178555620002fb565b82800160010185558215620002fb579182015b82811115620002fa578251825591602001919060010190620002dd565b5b5090506200030a91906200039d565b5090565b8280548282559060005260206000209081019282156200038a579160200282015b82811115620003895782518260006101000a81548173ffffffffffffffffffffffffffffffffffffffff021916908373ffffffffffffffffffffffffffffffffffffffff160217905550916020019190600101906200032f565b5b5090506200039991906200039d565b5090565b5b80821115620003b85760008160009055506001016200039e565b5090565b6000620003d3620003cd846200076f565b62000746565b90508083825260208201905082856020860282011115620003f357600080fd5b60005b858110156200042757816200040c888262000476565b845260208401935060208301925050600181019050620003f6565b5050509392505050565b60006200044862000442846200079e565b62000746565b9050828152602081018484840111156200046157600080fd5b6200046e84828562000823565b509392505050565b6000815190506200048781620009fb565b92915050565b600082601f8301126200049f57600080fd5b8151620004b1848260208601620003bc565b91505092915050565b600082601f830112620004cc57600080fd5b8151620004de84826020860162000431565b91505092915050565b600081519050620004f88162000a15565b92915050565b6000806000806000806000806000806101408b8d0312156200051f57600080fd5b60006200052f8d828e0162000476565b9a50506020620005428d828e0162000476565b99505060408b015167ffffffffffffffff8111156200056057600080fd5b6200056e8d828e01620004ba565b9850506060620005818d828e01620004e7565b9750506080620005948d828e01620004e7565b96505060a0620005a78d828e01620004e7565b95505060c08b015167ffffffffffffffff811115620005c557600080fd5b620005d38d828e01620004ba565b94505060e08b015167ffffffffffffffff811115620005f157600080fd5b620005ff8d828e01620004ba565b9350506101008b015167ffffffffffffffff8111156200061e57600080fd5b6200062c8d828e01620004ba565b9250506101208b015167ffffffffffffffff8111156200064b57600080fd5b620006598d828e016200048d565b9150509295989b9194979a5092959850565b60006200067a602883620007d4565b9150620006878262000934565b604082019050919050565b6000620006a1602083620007d4565b9150620006ae8262000983565b602082019050919050565b6000620006c8602683620007d4565b9150620006d582620009ac565b604082019050919050565b60006020820190508181036000830152620006fb816200066b565b9050919050565b600060208201905081810360008301526200071d8162000692565b9050919050565b600060208201905081810360008301526200073f81620006b9565b9050919050565b60006200075262000765565b90506200076082826200088f565b919050565b6000604051905090565b600067ffffffffffffffff8211156200078d576200078c620008f4565b5b602082029050602081019050919050565b600067ffffffffffffffff821115620007bc57620007bb620008f4565b5b620007c78262000923565b9050602081019050919050565b600082825260208201905092915050565b6000620007f282620007f9565b9050919050565b600073ffffffffffffffffffffffffffffffffffffffff82169050919050565b6000819050919050565b60005b838110156200084357808201518184015260208101905062000826565b8381111562000853576000848401525b50505050565b600060028204905060018216806200087257607f821691505b60208210811415620008895762000888620008c5565b5b50919050565b6200089a8262000923565b810181811067ffffffffffffffff82111715620008bc57620008bb620008f4565b5b80604052505050565b7f4e487b7100000000000000000000000000000000000000000000000000000000600052602260045260246000fd5b7f4e487b7100000000000000000000000000000000000000000000000000000000600052604160045260246000fd5b6000601f19601f8301169050919050565b7f5375626d697420646561646c696e65206d75737420626520616674657220737460008201527f6172742074696d65000000000000000000000000000000000000000000000000602082015250565b7f53746172742074696d65206d75737420626520696e2074686520667574757265600082015250565b7f456e642074696d65206d757374206265206166746572207375626d697420646560008201527f61646c696e650000000000000000000000000000000000000000000000000000602082015250565b62000a0681620007e5565b811462000a1257600080fd5b50565b62000a208162000819565b811462000a2c57600080fd5b50565b6129228062000a3f6000396000f3fe6080604052600436106100dd5760003560e01c8063adeaa8511161007f578063d8bff5a511610059578063d8bff5a51461026a578063d8f7a0bb146102a7578063e95d1a1e146102d0578063eccb3a4f14610301576100dd565b8063adeaa8511461020c578063bac6f60a14610237578063d11711a214610253576100dd565b8063517097be116100bb578063517097be1461017557806359a4fdf81461019e5780635aa68ac0146101ca57806377b6e504146101f5576100dd565b80632c769716146100e25780632dbf7b981461010d57806335c1d34914610138575b600080fd5b3480156100ee57600080fd5b506100f761033f565b6040516101049190612049565b60405180910390f35b34801561011957600080fd5b50610122610352565b60405161012f9190612064565b60405180910390f35b34801561014457600080fd5b5061015f600480360381019061015a9190611cde565b610376565b60405161016c9190611fe3565b60405180910390f35b34801561018157600080fd5b5061019c60048036038101906101979190611d07565b6103b5565b005b3480156101aa57600080fd5b506101b361058d565b6040516101c192919061207f565b60405180910390f35b3480156101d657600080fd5b506101df6105bf565b6040516101ec9190612027565b60405180910390f35b34801561020157600080fd5b5061020a61064d565b005b34801561021857600080fd5b506102216112b1565b60405161022e91906122a3565b60405180910390f35b610251600480360381019061024c9190611c9d565b61133c565b005b34801561025f57600080fd5b506102686113ef565b005b34801561027657600080fd5b50610291600480360381019061028c9190611c74565b611583565b60405161029e91906122a3565b60405180910390f35b3480156102b357600080fd5b506102ce60048036038101906102c99190611cde565b61159b565b005b3480156102dc57600080fd5b506102e5611788565b6040516102f897969594939291906120d8565b60405180910390f35b34801561030d57600080fd5b5061032860048036038101906103239190611cde565b6119d8565b6040516103369291906120a8565b60405180910390f35b600c60009054906101000a900460ff1681565b60008054906101000a900473ffffffffffffffffffffffffffffffffffffffff1681565b600d818154811061038657600080fd5b906000526020600020016000915054906101000a900473ffffffffffffffffffffffffffffffffffffffff1681565b600380015442106103fb576040517f08c379a00000000000000000000000000000000000000000000000000000000081526004016103f290612243565b60405180910390fd5b60001515600f600084815260200190815260200160002060009054906101000a900460ff16151514610462576040517f08c379a000000000000000000000000000000000000000000000000000000000815260040161045990612283565b60405180910390fd5b600160000160009054906101000a900473ffffffffffffffffffffffffffffffffffffffff1673ffffffffffffffffffffffffffffffffffffffff16633bc778e360018001548587866001800154876040518763ffffffff1660e01b81526004016104d2969594939291906122e7565b600060405180830381600087803b1580156104ec57600080fd5b505af1158015610500573d6000803e3d6000fd5b505050506001600f600084815260200190815260200160002060006101000a81548160ff0219169083151502179055506001600e60008673ffffffffffffffffffffffffffffffffffffffff1673ffffffffffffffffffffffffffffffffffffffff168152602001908152602001600020600082825461058091906123f4565b9250508190555050505050565b60018060000160009054906101000a900473ffffffffffffffffffffffffffffffffffffffff16908060010154905082565b6060600d80548060200260200160405190810160405280929190818152602001828054801561064357602002820191906000526020600020905b8160009054906101000a900473ffffffffffffffffffffffffffffffffffffffff1673ffffffffffffffffffffffffffffffffffffffff16815260200190600101908083116105f9575b5050505050905090565b600c60009054906101000a900460ff161561069d576040517f08c379a0000000000000000000000000000000000000000000000000000000008152600401610694906121c3565b60405180910390fd5b600380015442116106e3576040517f08c379a00000000000000000000000000000000000000000000000000000000081526004016106da90612163565b60405180910390fd5b6000600b805490501161072b576040517f08c379a0000000000000000000000000000000000000000000000000000000008152600401610722906121e3565b60405180910390fd5b6000471161076e576040517f08c379a000000000000000000000000000000000000000000000000000000000815260040161076590612183565b60405180910390fd5b60005b600b80549050811015610a8757600060018261078d91906123f4565b90505b600b80549050811015610a7357600b81815481106107d7577f4e487b7100000000000000000000000000000000000000000000000000000000600052603260045260246000fd5b906000526020600020906002020160010154600b8381548110610823577f4e487b7100000000000000000000000000000000000000000000000000000000600052603260045260246000fd5b9060005260206000209060020201600101541015610a60576000600b8381548110610877577f4e487b7100000000000000000000000000000000000000000000000000000000600052603260045260246000fd5b90600052602060002090600202016040518060400160405290816000820180546108a09061251c565b80601f01602080910402602001604051908101604052809291908181526020018280546108cc9061251c565b80156109195780601f106108ee57610100808354040283529160200191610919565b820191906000526020600020905b8154815290600101906020018083116108fc57829003601f168201915b505050505081526020016001820154815250509050600b8281548110610968577f4e487b7100000000000000000000000000000000000000000000000000000000600052603260045260246000fd5b9060005260206000209060020201600b84815481106109b0577f4e487b7100000000000000000000000000000000000000000000000000000000600052603260045260246000fd5b906000526020600020906002020160008201816000019080546109d29061251c565b6109dd929190611a94565b506001820154816001015590505080600b8381548110610a26577f4e487b7100000000000000000000000000000000000000000000000000000000600052603260045260246000fd5b90600052602060002090600202016000820151816000019080519060200190610a50929190611b21565b5060208201518160010155905050505b8080610a6b9061257f565b915050610790565b508080610a7f9061257f565b915050610771565b5060005b600d80549050811015610e01576000600182610aa791906123f4565b90505b600d80549050811015610ded57600e6000600d8381548110610af5577f4e487b7100000000000000000000000000000000000000000000000000000000600052603260045260246000fd5b9060005260206000200160009054906101000a900473ffffffffffffffffffffffffffffffffffffffff1673ffffffffffffffffffffffffffffffffffffffff1673ffffffffffffffffffffffffffffffffffffffff16815260200190815260200160002054600e6000600d8581548110610b99577f4e487b7100000000000000000000000000000000000000000000000000000000600052603260045260246000fd5b9060005260206000200160009054906101000a900473ffffffffffffffffffffffffffffffffffffffff1673ffffffffffffffffffffffffffffffffffffffff1673ffffffffffffffffffffffffffffffffffffffff168152602001908152602001600020541015610dda576000600d8381548110610c41577f4e487b7100000000000000000000000000000000000000000000000000000000600052603260045260246000fd5b9060005260206000200160009054906101000a900473ffffffffffffffffffffffffffffffffffffffff169050600d8281548110610ca8577f4e487b7100000000000000000000000000000000000000000000000000000000600052603260045260246000fd5b9060005260206000200160009054906101000a900473ffffffffffffffffffffffffffffffffffffffff16600d8481548110610d0d577f4e487b7100000000000000000000000000000000000000000000000000000000600052603260045260246000fd5b9060005260206000200160006101000a81548173ffffffffffffffffffffffffffffffffffffffff021916908373ffffffffffffffffffffffffffffffffffffffff16021790555080600d8381548110610d90577f4e487b7100000000000000000000000000000000000000000000000000000000600052603260045260246000fd5b9060005260206000200160006101000a81548173ffffffffffffffffffffffffffffffffffffffff021916908373ffffffffffffffffffffffffffffffffffffffff160217905550505b8080610de59061257f565b915050610aaa565b508080610df99061257f565b915050610a8b565b506000600b8054905067ffffffffffffffff811115610e49577f4e487b7100000000000000000000000000000000000000000000000000000000600052604160045260246000fd5b604051908082528060200260200182016040528015610e775781602001602082028036833780820191505090505b50905060005b600b80549050811015610ffd57600d80549050811015610f7457600d8181548110610ed1577f4e487b7100000000000000000000000000000000000000000000000000000000600052603260045260246000fd5b9060005260206000200160009054906101000a900473ffffffffffffffffffffffffffffffffffffffff16828281518110610f35577f4e487b7100000000000000000000000000000000000000000000000000000000600052603260045260246000fd5b602002602001019073ffffffffffffffffffffffffffffffffffffffff16908173ffffffffffffffffffffffffffffffffffffffff1681525050610fea565b6000828281518110610faf577f4e487b7100000000000000000000000000000000000000000000000000000000600052603260045260246000fd5b602002602001019073ffffffffffffffffffffffffffffffffffffffff16908173ffffffffffffffffffffffffffffffffffffffff16815250505b8080610ff59061257f565b915050610e7d565b5060005b600b8054905081101561124b57600073ffffffffffffffffffffffffffffffffffffffff1682828151811061105f577f4e487b7100000000000000000000000000000000000000000000000000000000600052603260045260246000fd5b602002602001015173ffffffffffffffffffffffffffffffffffffffff1614611238578181815181106110bb577f4e487b7100000000000000000000000000000000000000000000000000000000600052603260045260246000fd5b602002602001015173ffffffffffffffffffffffffffffffffffffffff166108fc600b8381548110611116577f4e487b7100000000000000000000000000000000000000000000000000000000600052603260045260246000fd5b9060005260206000209060020201600101549081150290604051600060405180830381858888f19350505050158015611153573d6000803e3d6000fd5b5060008054906101000a900473ffffffffffffffffffffffffffffffffffffffff1673ffffffffffffffffffffffffffffffffffffffff16636ad5232b8383815181106111c9577f4e487b7100000000000000000000000000000000000000000000000000000000600052603260045260246000fd5b60200260200101513073ffffffffffffffffffffffffffffffffffffffff166040518363ffffffff1660e01b8152600401611205929190611ffe565b600060405180830381600087803b15801561121f57600080fd5b505af1158015611233573d6000803e3d6000fd5b505050505b80806112439061257f565b915050611001565b503373ffffffffffffffffffffffffffffffffffffffff166108fc479081150290604051600060405180830381858888f19350505050158015611292573d6000803e3d6000fd5b506001600c60006101000a81548160ff02191690831515021790555050565b6000806000905060005b600b8054905081101561133457600b8181548110611302577f4e487b7100000000000000000000000000000000000000000000000000000000600052603260045260246000fd5b9060005260206000209060020201600101548261131f91906123f4565b9150808061132c9061257f565b9150506112bb565b508091505090565b6003600201544210611383576040517f08c379a000000000000000000000000000000000000000000000000000000000815260040161137a90612203565b60405180910390fd5b600b604051806040016040528083815260200134815250908060018154018082558091505060019003906000526020600020906002020160009091909190915060008201518160000190805190602001906113df929190611b21565b5060208201518160010155505050565b6003600101544210611436576040517f08c379a000000000000000000000000000000000000000000000000000000000815260040161142d906121a3565b60405180910390fd5b600d339080600181540180825580915050600190039060005260206000200160009091909190916101000a81548173ffffffffffffffffffffffffffffffffffffffff021916908373ffffffffffffffffffffffffffffffffffffffff16021790555060008054906101000a900473ffffffffffffffffffffffffffffffffffffffff1673ffffffffffffffffffffffffffffffffffffffff1663533ede8a333073ffffffffffffffffffffffffffffffffffffffff166040518363ffffffff1660e01b815260040161150a929190611ffe565b600060405180830381600087803b15801561152457600080fd5b505af1158015611538573d6000803e3d6000fd5b505050506000600e60003373ffffffffffffffffffffffffffffffffffffffff1673ffffffffffffffffffffffffffffffffffffffff16815260200190815260200160002081905550565b600e6020528060005260406000206000915090505481565b60036002015442106115e2576040517f08c379a00000000000000000000000000000000000000000000000000000000081526004016115d990612263565b60405180910390fd5b6000805b6003600701805490508110156116ad573373ffffffffffffffffffffffffffffffffffffffff166003600701828154811061164a577f4e487b7100000000000000000000000000000000000000000000000000000000600052603260045260246000fd5b9060005260206000200160009054906101000a900473ffffffffffffffffffffffffffffffffffffffff1673ffffffffffffffffffffffffffffffffffffffff16141561169a57600191506116ad565b80806116a59061257f565b9150506115e6565b50806116ee576040517f08c379a00000000000000000000000000000000000000000000000000000000081526004016116e590612223565b60405180910390fd5b600160000160009054906101000a900473ffffffffffffffffffffffffffffffffffffffff1673ffffffffffffffffffffffffffffffffffffffff16631783efc36001800154846040518363ffffffff1660e01b81526004016117529291906122be565b600060405180830381600087803b15801561176c57600080fd5b505af1158015611780573d6000803e3d6000fd5b505050505050565b60038060000180546117999061251c565b80601f01602080910402602001604051908101604052809291908181526020018280546117c59061251c565b80156118125780601f106117e757610100808354040283529160200191611812565b820191906000526020600020905b8154815290600101906020018083116117f557829003601f168201915b5050505050908060010154908060020154908060030154908060040180546118399061251c565b80601f01602080910402602001604051908101604052809291908181526020018280546118659061251c565b80156118b25780601f10611887576101008083540402835291602001916118b2565b820191906000526020600020905b81548152906001019060200180831161189557829003601f168201915b5050505050908060050180546118c79061251c565b80601f01602080910402602001604051908101604052809291908181526020018280546118f39061251c565b80156119405780601f1061191557610100808354040283529160200191611940565b820191906000526020600020905b81548152906001019060200180831161192357829003601f168201915b5050505050908060060180546119559061251c565b80601f01602080910402602001604051908101604052809291908181526020018280546119819061251c565b80156119ce5780601f106119a3576101008083540402835291602001916119ce565b820191906000526020600020905b8154815290600101906020018083116119b157829003601f168201915b5050505050905087565b600b81815481106119e857600080fd5b9060005260206000209060020201600091509050806000018054611a0b9061251c565b80601f0160208091040260200160405190810160405280929190818152602001828054611a379061251c565b8015611a845780601f10611a5957610100808354040283529160200191611a84565b820191906000526020600020905b815481529060010190602001808311611a6757829003601f168201915b5050505050908060010154905082565b828054611aa09061251c565b90600052602060002090601f016020900481019282611ac25760008555611b10565b82601f10611ad35780548555611b10565b82800160010185558215611b1057600052602060002091601f016020900482015b82811115611b0f578254825591600101919060010190611af4565b5b509050611b1d9190611ba7565b5090565b828054611b2d9061251c565b90600052602060002090601f016020900481019282611b4f5760008555611b96565b82601f10611b6857805160ff1916838001178555611b96565b82800160010185558215611b96579182015b82811115611b95578251825591602001919060010190611b7a565b5b509050611ba39190611ba7565b5090565b5b80821115611bc0576000816000905550600101611ba8565b5090565b6000611bd7611bd28461236e565b612349565b905082815260208101848484011115611bef57600080fd5b611bfa8482856124da565b509392505050565b600081359050611c11816128be565b92915050565b600081905082602060080282011115611c2f57600080fd5b92915050565b600082601f830112611c4657600080fd5b8135611c56848260208601611bc4565b91505092915050565b600081359050611c6e816128d5565b92915050565b600060208284031215611c8657600080fd5b6000611c9484828501611c02565b91505092915050565b600060208284031215611caf57600080fd5b600082013567ffffffffffffffff811115611cc957600080fd5b611cd584828501611c35565b91505092915050565b600060208284031215611cf057600080fd5b6000611cfe84828501611c5f565b91505092915050565b6000806000806101608587031215611d1e57600080fd5b6000611d2c87828801611c5f565b9450506020611d3d87828801611c5f565b9350506040611d4e87828801611c5f565b9250506060611d5f87828801611c17565b91505092959194509250565b6000611d778383611d83565b60208301905092915050565b611d8c8161244a565b82525050565b611d9b8161244a565b82525050565b6000611dac826123af565b611db681856123d2565b9350611dc18361239f565b8060005b83811015611df2578151611dd98882611d6b565b9750611de4836123c5565b925050600181019050611dc5565b5085935050505092915050565b611e0c61010083836124da565b5050565b611e198161245c565b82525050565b611e2881612492565b82525050565b611e37816124b6565b82525050565b6000611e48826123ba565b611e5281856123e3565b9350611e628185602086016124e9565b611e6b81612655565b840191505092915050565b6000611e83602c836123e3565b9150611e8e82612666565b604082019050919050565b6000611ea66018836123e3565b9150611eb1826126b5565b602082019050919050565b6000611ec96028836123e3565b9150611ed4826126de565b604082019050919050565b6000611eec6019836123e3565b9150611ef78261272d565b602082019050919050565b6000611f0f6016836123e3565b9150611f1a82612756565b602082019050919050565b6000611f32602a836123e3565b9150611f3d8261277f565b604082019050919050565b6000611f55601e836123e3565b9150611f60826127ce565b602082019050919050565b6000611f786024836123e3565b9150611f83826127f7565b604082019050919050565b6000611f9b6027836123e3565b9150611fa682612846565b604082019050919050565b6000611fbe6011836123e3565b9150611fc982612895565b602082019050919050565b611fdd81612488565b82525050565b6000602082019050611ff86000830184611d92565b92915050565b60006040820190506120136000830185611d92565b6120206020830184611fd4565b9392505050565b600060208201905081810360008301526120418184611da1565b905092915050565b600060208201905061205e6000830184611e10565b92915050565b60006020820190506120796000830184611e1f565b92915050565b60006040820190506120946000830185611e2e565b6120a16020830184611fd4565b9392505050565b600060408201905081810360008301526120c28185611e3d565b90506120d16020830184611fd4565b9392505050565b600060e08201905081810360008301526120f2818a611e3d565b90506121016020830189611fd4565b61210e6040830188611fd4565b61211b6060830187611fd4565b818103608083015261212d8186611e3d565b905081810360a08301526121418185611e3d565b905081810360c08301526121558184611e3d565b905098975050505050505050565b6000602082019050818103600083015261217c81611e76565b9050919050565b6000602082019050818103600083015261219c81611e99565b9050919050565b600060208201905081810360008301526121bc81611ebc565b9050919050565b600060208201905081810360008301526121dc81611edf565b9050919050565b600060208201905081810360008301526121fc81611f02565b9050919050565b6000602082019050818103600083015261221c81611f25565b9050919050565b6000602082019050818103600083015261223c81611f48565b9050919050565b6000602082019050818103600083015261225c81611f6b565b9050919050565b6000602082019050818103600083015261227c81611f8e565b9050919050565b6000602082019050818103600083015261229c81611fb1565b9050919050565b60006020820190506122b86000830184611fd4565b92915050565b60006040820190506122d36000830185611fd4565b6122e06020830184611fd4565b9392505050565b60006101a0820190506122fd6000830189611fd4565b61230a6020830188611fd4565b6123176040830187611fd4565b6123246060830186611fd4565b6123316080830185611fd4565b61233e60a0830184611dff565b979650505050505050565b6000612353612364565b905061235f828261254e565b919050565b6000604051905090565b600067ffffffffffffffff82111561238957612388612626565b5b61239282612655565b9050602081019050919050565b6000819050602082019050919050565b600081519050919050565b600081519050919050565b6000602082019050919050565b600082825260208201905092915050565b600082825260208201905092915050565b60006123ff82612488565b915061240a83612488565b9250827fffffffffffffffffffffffffffffffffffffffffffffffffffffffffffffffff0382111561243f5761243e6125c8565b5b828201905092915050565b600061245582612468565b9050919050565b60008115159050919050565b600073ffffffffffffffffffffffffffffffffffffffff82169050919050565b6000819050919050565b600061249d826124a4565b9050919050565b60006124af82612468565b9050919050565b60006124c1826124c8565b9050919050565b60006124d382612468565b9050919050565b82818337600083830152505050565b60005b838110156125075780820151818401526020810190506124ec565b83811115612516576000848401525b50505050565b6000600282049050600182168061253457607f821691505b60208210811415612548576125476125f7565b5b50919050565b61255782612655565b810181811067ffffffffffffffff8211171561257657612575612626565b5b80604052505050565b600061258a82612488565b91507fffffffffffffffffffffffffffffffffffffffffffffffffffffffffffffffff8214156125bd576125bc6125c8565b5b600182019050919050565b7f4e487b7100000000000000000000000000000000000000000000000000000000600052601160045260246000fd5b7f4e487b7100000000000000000000000000000000000000000000000000000000600052602260045260246000fd5b7f4e487b7100000000000000000000000000000000000000000000000000000000600052604160045260246000fd5b6000601f19601f8301169050919050565b7f43616e6e6f742064697374726962757465207072697a65206265666f7265206860008201527f61636b6174686f6e20656e640000000000000000000000000000000000000000602082015250565b7f4e6f2062616c616e636520746f20646973747269627574650000000000000000600082015250565b7f43616e6e6f74207061727469636970617465206166746572206861636b61746860008201527f6f6e207374617274000000000000000000000000000000000000000000000000602082015250565b7f5072697a6520616c726561647920646973747269627574656400000000000000600082015250565b7f4e6f207072697a6520746f206469737472696275746500000000000000000000600082015250565b7f43616e6e6f74206465706f736974207072697a65206166746572207375626d6960008201527f7420646561646c696e6500000000000000000000000000000000000000000000602082015250565b7f4f6e6c79206576616c7561746f72732063616e206a6f696e2067726f75700000600082015250565b7f43616e6e6f74206361737420766f7465206166746572206861636b6174686f6e60008201527f20656e6400000000000000000000000000000000000000000000000000000000602082015250565b7f43616e6e6f74206a6f696e2067726f7570206166746572207375626d6974206460008201527f6561646c696e6500000000000000000000000000000000000000000000000000602082015250565b7f43616e6e6f7420766f7465207477696365000000000000000000000000000000600082015250565b6128c78161244a565b81146128d257600080fd5b50565b6128de81612488565b81146128e957600080fd5b5056fea26469706673582212202f9b3efdd5f7841f90b06dc83be14e4c648e47f83d41c2e2f0fdf9184e398f6964736f6c63430008040033",
  "linkReferences": {},
  "deployedLinkReferences": {}
}